:020000041008E2
:1000000000F002286BA8081054A9081058A908107D
:1000100074A9081076A9081078A90810000000003B
:100020000000000000000000000000007AA9081095
:1000300094A908100000000096A9081098A90810BB
:10004000210308105103081081030810B1030810A0
:10005000E10308101104081041040810710408108D
:100060009AA908109CA908109EA90810A0A9081018
:10007000A2A90810A4A90810A6A90810A8A90810E8
:10008000F0B54C4D87B000F035F96C460FCD0FC47C
:1000900095E803006B46002284E80300694618686F
:1000A000440700D0FEE758680130400700D0FEE763
:1000B00001320833032AF2D13F4B1C68630700D09A
:1000C000FEE73E4B1A68013212F0070000D0FEE74F
:1000D00005460026002704F1FF3ED1E9003C0BB1A4
:1000E0009C425DD364455BD8734551D31346634549
:1000F00051D301350831032DEFD1314A314B32490B
:100100001446C3F38703C5B2AB424CD82F4B9A6059
:100110005A6912F4003211D1BFF34F8FBFF36F8FC2
:10012000C3F85022BFF34F8FBFF36F8F5A6942F469
:1001300000325A61BFF34F8FBFF36F8F234B5A6961
:1001400012F4803222D1C3F88420BFF34F8FD3F84A
:10015000800043F6E074C0F34E32520102EA040616
:10016000C0F3C90146EA81750139C3F86052F9D27A
:10017000203A12F1200FF1D1BFF34F8F5A6942F4A8
:1001800080325A61BFF34F8FBFF36F8F07B0F0BD5E
:10019000E3E80267A8E7E3E80267A8E7E3E80267A5
:1001A0006345FBD3A5E751F8045B013044F8045BD9
:1001B000A9E700BF98D208104CA9081050A9081050
:1001C00080CB0228800000000000081000ED00E055
:1001D00030B5264D87B00FCD6C460FC495E80300AF
:1001E00084E80300684600F013FA88B1204B214AE6
:1001F00003F11800114653F8044B834242F8044BB4
:10020000F9D100201C4B4E22C8751A6001F03CFA4F
:100210001A4C204600F04EFC78B1154B154A03F1FC
:100220001800114653F8044B834242F8044BF9D1AD
:100230000020114B5022C875E7E72368104A114986
:10024000136003F5742203F2E73302F23F22B2FB9C
:10025000F1F20D490A604FF47A72B3FBF2F30B4AE4
:100260001360DB030A4A136007B030BDB8D9081029
:10027000B0D20810041502280015022850140228D4
:100280004C14022840420F0044140228481402284B
:1002900040140228164A002370B4C2F88430BFF319
:1002A0004F8FD2F8800043F6E074C0F34E335B0109
:1002B00003EA0406C0F3C90146EA81750139C2F8B0
:1002C0007452F9D2203B13F1200FF1D1BFF34F8FBD
:1002D000BFF36F8FBFF34F8FBFF36F8F0023C2F851
:1002E0005032BFF34F8FBFF36F8F70BCFFF770BFFB
:1002F00000ED00E008B50AF0B1FA074AD2F88830FC
:1003000043F47003C2F88830BFF34F8FBFF36F8F91
:10031000BDE808400AF0A6BA00ED00E0FEE70000E4
:1003200008B5084BD3F80031002B05DAC3F30903F5
:10033000054A52F823309847044B0122C3F8802124
:1003400008BD00BF000020400408022800E100E0D2
:1003500008B5084BD3F80431002B05DAC3F30903C1
:10036000054A52F823309847044B0222C3F88021F3
:1003700008BD00BF000020400408022800E100E0A2
:1003800008B5084BD3F80831002B05DAC3F309038D
:10039000054A52F823309847044B0422C3F88021C1
:1003A00008BD00BF000020400408022800E100E072
:1003B00008B5084BD3F80C31002B05DAC3F3090359
:1003C000054A52F823309847044B0822C3F880218D
:1003D00008BD00BF000020400408022800E100E042
:1003E00008B5084BD3F81031002B05DAC3F3090325
:1003F000054A52F823309847044B1022C3F8802155
:1004000008BD00BF000020400408022800E100E011
:1004100008B5084BD3F81431002B05DAC3F30903F0
:10042000054A52F823309847044B2022C3F8802114
:1004300008BD00BF000020400408022800E100E0E1
:1004400008B5084BD3F81831002B05DAC3F30903BC
:10045000054A52F823309847044B4022C3F88021C4
:1004600008BD00BF000020400408022800E100E0B1
:1004700008B5084BD3F81C31002B05DAC3F3090388
:10048000054A52F823309847044B8022C3F8802154
:1004900008BD00BF000020400408022800E100E081
:1004A000062810B512D9124B124A03F11800114652
:1004B00053F8044B834242F8044BF9D100200E4B11
:1004C0004FF4CE72C8751A6001F0DEF80B4A00F5E1
:1004D000906352F8233003F00703042B06D1403019
:1004E00052F8203003F01F0343F48073184610BD08
:1004F000E8D2081004150228001502280000264042
:10050000154AD2F83035C3F31101C3F3006301601B
:10051000C371D2F83435C3F30C01C3F307438180B0
:1005200003814381D2F83835C3F303010173C3F368
:1005300003114173C3F30C21C3F30173C18103742D
:10054000D2F83C35C3F302228271C3F30842C3F3ED
:10055000807342820375704700102640C31E012B32
:1005600015D800F27D500B4B53F82030002003F0DB
:100570007F020A60C3F304224A60C3F304428A6024
:10058000C3F30172C3F3C0634A730B737047012056
:10059000704700BF00002640431E012B10B533D822
:1005A0001A4C1B0104EB001403F18043D4F8F0282B
:1005B00003F51813D0B20860C2F304204860C2F3F8
:1005C0000440C2F3017288600A73D4F8F428C2F3BD
:1005D000C0704873C2F3076022F07F4200F07000E1
:1005E0000A6141F60812003818BF01208873002004
:1005F0009B58C3F3C0728B750A75C3F30062C3F3D3
:1006000002434A75CB7510BD0120FCE7001026405F
:1006100030B50446054D0FCC0FC5054B012294E8BB
:1006200003001A7085E80300002030BD581402282A
:1006300054140228074BD3F81835DB0F08D0064BAB
:100640001B782BB1054B00221B68036010467047D6
:100650000322FAE7001026405414022858140228F6
:100660000A4BD3F82425920704D4D3F8243513F089
:10067000010308D0064B1B782BB1064B00229B6868
:100680000360104670470322FAE700BF00102640BF
:100690005414022858140228054B1B782BB1054B23
:1006A00000225B680360104670470322FAE700BF30
:1006B0005414022858140228074BD3F80835DB0FCE
:1006C00008D0064B1B782BB1054B0022DB6803607A
:1006D000104670470322FAE70010264054140228FF
:1006E00058140228074BD3F80C35DB0F08D0064B03
:1006F0001B782BB1054B00221B6903601046704725
:100700000322FAE700102640541402285814022845
:10071000084B1B695A0708D5074B1B783BB1074BA1
:1007200000225B69036010467047C3F38003032215
:10073000F8E700BF0000274054140228581402288C
:1007400010B50C46FFF7ACFEB0F5887F24D008D872
:10075000012817D002281AD078B100230320236083
:1007600010BD40F2111398421BD0B0F58A7FF4D12E
:100770002046BDE81040FFF7B5BF2046BDE8104059
:10078000FFF758BF2046BDE81040FFF785BF204661
:10079000BDE81040FFF764BF2046BDE81040FFF7FA
:1007A0008BBF2046BDE81040FFF7B2BF01460020D6
:1007B000FFF7C6BF032803D80130C0B2FFF7C0BFA0
:1007C000002301200B60704730B589B0054601A8B1
:1007D000FFF7ECFF044628B10023032420462B60DA
:1007E00009B030BD02A8FFF78BFE9DF81830022B30
:1007F00001D1019BF2E70B4BD3F83025002AF8DA40
:10080000D3F84035DB07E7D5DDE901235343BDF8D5
:100810000C20B3FBF2F39DF80F200132B3FBF2F38F
:10082000DCE700BF00102640F0B589B00E46054653
:1008300001A9FFF7BFFF044620B100233360204623
:1008400009B0F0BD012D05F1010002A93AD9FFF769
:1008500085FE044690B1424B424A03F1180011460E
:1008600053F8044B834242F8044BF9D100203E4B2D
:1008700040F66312C8751A6000F006FF3B4B05F2A4
:100880007E51AA1E53F82110814201DB019BD5E75E
:100890009DF815100229F9D0012A10D805F28E55BD
:1008A00053F8253003F001034BB1DDE90123534335
:1008B000039AB3FBF2F3049AB3FBF2F3BEE72346C9
:1008C0000324BBE7FFF768FE044680B1244B254AAA
:1008D00003F11800114653F8044B834242F8044BCD
:1008E000F9D10020204B40F67F12C875C3E705F50B
:1008F000C8721E4B12019A58824202DB0199316084
:100900009DE79DF81420022AF8D003EB051303F5A8
:10091000C85308335B6803F00103F3B19DF8151069
:10092000DDE90150DDE9032389B1010A069F0006D4
:10093000A2FB0323C01941F10001A0FB050705FB41
:1009400001710BF0D5FD000E40EA0121D7E74543C8
:10095000B5FBF2F5B5FBF3F1D1E701460324CEE791
:10096000E8D20810041502280015022800002640CD
:1009700010B90846FFF728BF431EDBB2032B02D88D
:100980001846FFF751BFFFF7DBBE0000072873B51D
:100990000C4612D91E4B1F4A03F11800114653F89A
:1009A000044B834242F8044BF9D100201A4B40F625
:1009B0005B02C8751A6000F067FE184E00F592657C
:1009C00056F82530DB0505D4084602B0BDE8704076
:1009D000FFF730BE56F8250001A900F00F00FFF721
:1009E000C7FF18B10023236002B070BD56F8252060
:1009F000019BC2F30112022A05D0032A05D0012A65
:100A000008BF5B08EFE79B08EDE7DB08EBE700BFFB
:100A10001ED30810041502280015022800002640E5
:100A200037B5054601A90120FFF7B0FF0446B8B964
:100A30000C4B01999A6898686301C2F30722C0F3CE
:100A4000C4000132520112184FEA41104FEAD1613D
:100A500043F100030BF04CFD2860204603B030BD8D
:100A60000020F9E70000204037B5054601A9012024
:100A7000FFF78CFF0446C8B90D4B0199D3F8082441
:100A8000D3F808046301C2F30722C0F3C4000132A3
:100A9000520112184FEA41104FEAD16143F10003AD
:100AA0000BF026FD2860204603B030BD0020F9E79A
:100AB00000002040084A1368C3F303230E2B01D122
:100AC000FFF7AEBF1368C3F303230D2B01D1FFF76C
:100AD000CBBF0120704700BF00002040094B1B68BE
:100AE0009B0407D400F16C40B0F5802F34BF002088
:100AF00001207047044B0340B3F1A05018BF012000
:100B0000704700BF000024400000FEFE0A4B1B6837
:100B10009A0409D400F16B4000F57D00B0F5803FE8
:100B20002CBF002001207047044B034004481B1ACF
:100B300058425841704700BF000024400080FFFE2B
:100B400000800114094B1B68DB0407D400F17040DE
:100B5000B0F5820F34BF00200120704720F00070F4
:100B600000F17040B0F5021FF4E700BF0000244020
:100B700008B50246FFF7B2FF20B11046BDE80840B5
:100B8000FFF7E0BF08BD000010B500F00FFD024602
:100B900090B16FF0704398420BD03E4B984273D0A7
:100BA0000133984230DA883B984226DAB0F1704F30
:100BB00003DC394800E0394810BD00F18052013AA9
:100BC000092AF6D801A353F822F000BFF50B08104C
:100BD000B30B0810910C0810690C08106D0C08106C
:100BE000710C0810B30B0810B30B0810B30B0810EE
:100BF000750C08104FF4A400DEE7294C264B294859
:100C0000A24218BF1846D7E7274B984228DA0F3B75
:100C10009842CEDB02F18052A43A0E2AC9D801A331
:100C200053F822F08D0C0810B70B0810790C08103F
:100C3000B30B08107D0C0810B30B0810810C0810C2
:100C4000B30B0810B30B0810B30B0810B30B08104C
:100C5000B30B0810B30B0810B30B0810850C081069
:100C6000124C0D4B1248CBE71248A5E71248A3E7F8
:100C70001248A1E712489FE712489DE712489BE7F8
:100C8000124899E7124897E7124895E7124893E708
:100C9000124891E7920000F0FF0052000900520054
:100CA000910000F006005200B30000F0BB0000F01D
:100CB0000E005200020052000300520004005200D5
:100CC000050052000A0052000B0052000C005200B6
:100CD0000D005200070052000800520001005200AF
:100CE00001291FB5044622D11022002168460BF0CD
:100CF000E4FD6946204600F0CDFB012811D0022812
:100D000011D0042811D00098FFF73EFF38B90B4BE3
:100D10009A6842F001029A609A68D207FCD404B043
:100D200010BD0748FBE70748F9E70748F7E700F079
:100D30005BFB0028024808BF0020F0E700002440C9
:100D40000400520010005200FF00520030B515465A
:100D500085B011B9154805B030BD0C682046FFF7C5
:100D600007FF0128F6D048680028F3D000238A7ACC
:100D70000093CDF8033006238DF803300B7A8DF8FD
:100D800001304B7A8DF802304B89ADF804300B7B83
:100D90008DF80730064B33F81210CDE9024000F011
:100DA000E3FC29466846FFF79BFFD4E70F0052009B
:100DB000D8D908107FB50D46164611B90F4804B0B2
:100DC00070BD0C682046FFF7D3FE0128F6D014F062
:100DD0000301F3D1102268460BF06FFD1423314656
:100DE00068468DF803302B7901948DF801306B79CA
:100DF0008DF80230FFF774FFE1E700BF0F005200EB
:100E000070B5164688B011B9214808B070BD4C685D
:100E1000002CF9D00D682846FFF760FE0128F3D0BA
:100E200005EB84000138FFF759FE0128ECD01022B1
:100E300000216846013C0BF040FD2A23012E01955C
:100E40008DF80330ADF8084019D1102200210DEBC8
:100E500002000BF032FD04A9684600F01BFB0128DC
:100E600007D0022807D0042807D00498FFF78CFE8B
:100E7000CBE70848C9E70848C7E70848C5E7684618
:100E800000F0B2FA0028034808BF0020BDE700BF09
:100E90000F0052000400520010005200FF005200E8
:100EA000F0B500287CD0002A7AD0012413688C4049
:100EB000002B67D1446000F13F43157A03294FF0BE
:100EC0001F0703F54F0305F01F0E4FEAD31303F17D
:100ED000806303F540334FEA031355D84FEAC10C42
:100EE0001E6807FA0CF70EFA0CFC26EA070646EA1B
:100EF0000C061E6053694E00856C032703F0010346
:100F000006F1100C25EA04058B402B43836493699A
:100F1000C56C03F0010325EA04058B402B4307FA57
:100F20000CF5C364C36C23EA0503D5693D40B740A3
:100F300005FA0CF54FEA810C2B430F25C36405FA23
:100F40000CF5436C23EA0503556805F00F0505FA17
:100F50000CF52B434364D568036C05F0030523EAC5
:100F60000703B5402B430364436944614369136934
:100F7000856903F0010325EA04058B402B43836157
:100F80000020F0BD846096E70E1F5D68F6B2F600A3
:100F9000B74025EA07070EFA06F53D435D60A9E76D
:100FA0000048EEE701005A0010B50468002C07DA8B
:100FB000C2600361002361F30F038360002010BD52
:100FC0000048FCE701008A004FF0000CF0B56446D1
:100FD0006546002800F0BE80002900F0BB804F6805
:100FE000002F40F0AE808F68D1E90436B34238BF9D
:100FF0003346082B05D9102B00F2A880012363F398
:101000008F3C0B7B91F82160013B03F00F0343F011
:10101000807343EA0623504E1E40504B0CEA0303F4
:1010200046EA030CC0F800C04E6891F81CC0F308F3
:101030008CF0010C360603F0020306F0407643EA1A
:101040000C034FEA470CFF000CF0040C07F00807F4
:1010500043EA0C033B43CF7E43EA07134F7E43EA48
:1010600047134F7F43EA07238F7F43EA4723CF7F0E
:1010700043EA872391F8207043EAC72333430E687D
:10108000771E7E427E4143EAC673002623F0F94371
:1010900023F4FF0323F4E14323F0400303620B7CBA
:1010A0000F7E013B03F01F0343EA07238F7E43EAD1
:1010B000472323F0E0039B059B0D63F30F05C0F866
:1010C000005391F82450D0F8043365F30703C0F8B7
:1010D00004330B7D0D7E013B03F01F0343EA052320
:1010E00023F0E003DB05DB0D63F30F04C0F80042DF
:1010F00091F82C40D0F8043264F30703C0F80432AE
:101100000B6BC0F8883F8B6AC0F8C83F91F8384035
:10111000D0F8003F64F34923C0F8003F91F839103C
:10112000D0F8403F61F3CB23C0F8403FC0F8C86E11
:101130002AB10B4B1660D66196611362D66000200F
:10114000F0BD023F18BF01277F004DE7202B01D8DB
:10115000022354E70348F3E70F010001F0FEFFFC10
:10116000EFCDAB000140AA002DE9F0434FF000089D
:10117000C6464546C446474644464646002800F013
:10118000E480002900F0E1800B68022B04D191F883
:101190002630002B00F0D7804B68013B03F00F0393
:1011A00091F8249043F0007343EA0943DFF8AC91CF
:1011B00003EA0909C0F800900B6863F31968C0F8E6
:1011C0004080D1F814800B7C4FEA0819013B4FEAAC
:1011D000081809F0100903F0070308F0200843EA93
:1011E000090343EA080391F8258043EA881391F83C
:1011F000198043EA082391F81A8043EA482391F8BA
:101200001B8043EA882391F8388008F1FF3808F002
:101210000F0843EA084323F07F4323F4700323F4C9
:10122000784323F0880383640B7A91F80C80013BA8
:1012300003F01F0343EA082391F8188043EA482388
:1012400023F0E0039B059B0D63F30F0EC0F800E352
:10125000CB6963F307050B6A63F31745C0F81053B6
:101260000B7C4D69013B05F0010EC5F3400503F011
:10127000070343EA0E1343EA451391F8275043EA64
:10128000052323F0C803DB05DB0D63F30F0CC0F867
:1012900044C00B7A0D7B013B03F01F0343EA052397
:1012A0000D6805F1FF3CDCF1000545EB0C0543EA58
:1012B000054323F07F4323F47E0323F47E4323F08E
:1012C000E003C0F80032CB6B63F30707C0F8047388
:1012D000CB6A03F1FF384B6BD8F1000503F1FF39FE
:1012E00045EB0805D9F1000343EB090343EA052365
:1012F00091F8285043EA4523154D23F0FE0305EAF3
:1013000014459B059B0D2B4363F31F440B6B63F349
:10131000070404654B6C63F30706C0F804628B6C2A
:10132000C0F8883F0B6CC0F8C83F002342B153603F
:10133000936013601363D3601362D362054B5363EE
:101340000020BDE8F083434628E70348F9E700BFE3
:10135000FEFCFFFFEFCDAB000160AA000F00010211
:10136000104B40F2071203604FF440130364002354
:101370008364C0F80023C0F80433C0F8103343641A
:10138000C0F80022C0F804320365C0F8C83EC0F8B7
:10139000883EC0F8C83FC0F8883FC0F8083FC0F892
:1013A000483F70470F00000338B50C4C0C4BE56C00
:1013B0001A6812F4706F0FD01B68C3F303230E2B4F
:1013C00014BF042302232B4203D0064B1B6803B136
:1013D00098472564236C38BD0123F4E700102240B0
:1013E0000000204074140228F8B570B3184B1A6836
:1013F00012F4706F27D01B68164CC3F30323164AF0
:101400000E2B08BF1446154A034600F11007164676
:101410001868083353F8041C1546BB4203C52A4616
:10142000F6D1336810210D4823F00103336000F03A
:101430009BF90B4B0121094A2046FFF7B5FD003807
:1014400018BF0120F8BD074CDDE70520FAE700BF13
:10145000000020404000224020002240801402284A
:10146000701402280000224010B5094C10212046BB
:1014700000F064F9236803F07043B3F1204F05D006
:10148000B3F1704F14BF0220012010BD0020FCE713
:1014900080140228F8B50D46002852D02C4B1A684B
:1014A00012F4706F47D01B682A4CC3F303232A4AF7
:1014B0000E2B08BF1446294A034600F1100C1746AC
:1014C0001868083353F8041C1646634503C63246B1
:1014D000F6D13B681021214823F001033B6000F066
:1014E00043F91F4B01211D4A2046FFF75DFD50BB0C
:1014F0006FF07043E269002A1FDB8DB1174C102199
:10150000164800F01BF92A4604F11005234608325C
:1015100003CBAB4242F8080C42F8041C1C46F5D140
:10152000FFF7A2FF012810D0FFF79EFF003818BF79
:1015300001208000F8BD0B4CBDE7013BDAD1022051
:10154000F8E70520F6E70120F4E70320F2E700BF03
:101550000000204040002240200022408014022849
:10156000701402280000224070B50446FFF77CFF8B
:101570000228034612D06CB10B4D224605F110062D
:101580002C46083203CCB44242F8080C42F8041C42
:101590002546F5D12BB1044B186870BD6FF0704033
:1015A000FBE71846F9E700BF8014022800F07043FB
:1015B000B3F1204F05D0B3F1704F18BF6FF07040FA
:1015C0007047002070470000022313B5ADF80030CB
:1015D0000124104BADF80210186068468DF80440E5
:1015E00000F020F80C49BDF8000000F045F80B4B66
:1015F0001A6812F4706F06D01B68C3F303230E2B16
:1016000014BF042402240023054A64F30F039364E7
:1016100002B010BD74140228A91308100000204065
:101620000010224008B3124A1368C3F303230E2BA1
:101630000CD14388017903F00F0343EAC173018899
:1016400001F5205142F82130002070471368C3F3A0
:1016500003230D2BF8D14388017903F00F0343EAEC
:10166000C173018801F54051ECE70248704700BFA3
:101670000000204001005600024B1B680BB143F8EC
:10168000201070470008022801BEFEE708B5234B72
:10169000234A196891423ED01A60224A926A5A62DD
:1016A000214A9A6202685A6042689A608268DA60E7
:1016B000C2681A6102695A6142699A618269DA6193
:1016C000C2691A62F1EE102A12F0900F23D0174A65
:1016D0009A62026ADA62426A1A63826A5A63C26A68
:1016E0009A63026BDA63426B1A64826B5A64C26B50
:1016F0009A64026CDA64426C1A65826C5A65C26C38
:101700009A65026DDA65426D1A66826D5A66C26D1F
:101710009A66026EDA66FFF7B8FF08BD90140228D9
:10172000FAF9F8F700ED00E0A4A3A2A1ABAAA9A8DA
:10173000836913F8023C036070470000002910DD44
:1017400000F01F030B44BFF34F8F06490344C1F859
:101750005C0220301A1A002AF9DCBFF34F8FBFF366
:101760006F8F704700ED00E0002910DD00F01F03CF
:101770000B44BFF34F8F06490344C1F86802203081
:101780001A1A002AF9DCBFF34F8FBFF36F8F70472F
:1017900000ED00E0036C43F01003036470470000A9
:1017A00091F84C30042B10B500F28B8091F84D303D
:1017B000042B00F28680002800F0838091F824201A
:1017C0000B7D43EA42038A7902F0030243EA0243B3
:1017D0004A7902F0010243EA82430A7A02F00702E0
:1017E00043EA0263CA7943EA8273374A1A400260C5
:1017F0000A79036B62F3070303634B79012B5ED114
:101800008B79002B57D18360CB68002403610B696F
:101810004361CB6983610B6AC3610B680362002378
:101820008A6962F307030A6B62F317430A6C62F377
:101830001F638A6C62F30F23436400238A6B62F395
:1018400007038A6A62F30F23836491F844208B7D37
:1018500002F0030203F0030343EA820391F82C2011
:1018600002F0030243EA021391F83C2002F0030263
:1018700043EA821391F8342002F0030243EA022380
:1018800091F8252002F0030243EA822363F30F0458
:10189000C464002491F84D3091F84C201B0102F0F3
:1018A000070203F07003134363F3070444654B7DA1
:1018B0008367002010BD012BA6D10B68A3E701238D
:1018C000A1E70120F6E700BF03000747036843F0E4
:1018D000004303607047036823F0004303607047D0
:1018E0008160704780687047836F43F001038367AE
:1018F0007047036F43F001030367036F70470000F5
:1019000010B5002800F0BB80002900F0B88091F8E5
:10191000344091F8283091F8402043EA44030C7F8A
:1019200043EA84034C7F43EAC40391F8704043EADE
:101930000423C2F3400402F0010243EA442343EAD1
:10194000822391F8712002F0030243EA0233CA684D
:10195000120402F4403213430A7A43EA82430A78BB
:1019600002F0070243EA02638A7843EA8273454A37
:101970001A4002600B7A002B7FD1836000240B6A2F
:1019800003614B6A4361CB6A83610B6BC3614B6933
:1019900003628B69436200234A6C62F30703CA6CDB
:1019A00062F31743CA6D62F31F63CA6E62F30F23BB
:1019B000436400234A6E62F30F234A6D62F3070308
:1019C000836491F8682091F8413002F0030203F03B
:1019D000030343EA820391F8482002F0030243EA3A
:1019E000021391F8582002F0030243EA821391F89F
:1019F000502002F0030243EA022391F8602002F033
:101A0000030243EA822363F30F04C464002491F8C1
:101A1000733091F872201B0102F0070203F070038B
:101A2000134363F307044465002491F8353083675A
:101A30004B7C0A7C9B0002F0030203F00C0313436F
:101A40008A7C120102F030021343CA7C43EA8213FB
:101A5000002263F307040465CB8863F31F428B887D
:101A60001C0A64F30F220C78052C14BF4B78DBB2F0
:101A700063F307020263002010BD4B697DE701207C
:101A8000FAE700BF0F370747036843F000430360DE
:101A9000704700001FB56846FFF766FD88B10F4B21
:101AA0000F4A03F11800114653F8044B834242F8E1
:101AB000044BF9D100200B4B4922C8751A60FFF77F
:101AC000E3FD094B01221A70084B9A6842F00102AB
:101AD0009A609A68D207FCD404B010BD54D30810A1
:101AE00004150228001502281D15022800002440B4
:101AF00010B5044648B103210D48FFF765FD0D4BB5
:101B0000602283F8032308221A600B4B1C700B4BD6
:101B1000D3F8002442F00102C3F80024D3F80025D2
:101B200042F00102C3F800250122054B1A7010BDD6
:101B3000951A081000E100E01C15022800F024406E
:101B40001D15022800230A4613B5CDE90033B1B9AB
:101B5000184B1B788BB9184B184A03F11800114623
:101B600053F8044B834242F8044BF9D10020144B44
:101B70009422C8751A60FFF787FD124B1970012374
:101B80000090694600208DF80430FFF713F978B112
:101B9000094B0A4A03F11800114653F8044B8342DB
:101BA00042F8044BF9D10020054B9E22C875E1E7AD
:101BB00002B010BD1C15022854D3081004150228C9
:101BC000001502281D15022837B505460C46FEF7FC
:101BD00085FF88B11D4B1E4A03F11800114653F8CA
:101BE000044B834242F8044BF9D10020194BB52233
:101BF000C8751A60FFF748FDA4B9174B1B787BB96D
:101C0000124B134A03F11800114653F8044B834258
:101C100042F8044BF9D100200E4BB922C875E8E711
:101C20000E4B1C7028460095FEF770FF00282246D8
:101C300069460CBF4FF40073202300200193FFF787
:101C4000DFF8B0FA80F0400903B030BD54D308107B
:101C500004150228001502281C1502281D1502284B
:101C60007FB50D4606461446FEF738FF014688B19B
:101C7000234B244A03F11800114653F8044B8342C6
:101C800042F8044BF9D100201F4BDF22C8751A60BF
:101C9000FFF7FAFC102268460AF00FFEA4B91B4BAE
:101CA0001B787BB9164B174A03F11800114653F8FD
:101CB000044B834242F8044BF9D10020124BE62238
:101CC000C875E4E7124B1C70124B2246694600208F
:101CD0000293CDE90065FFF739F878B1084B094A5E
:101CE00003F11800114653F8044B834242F8044BA9
:101CF000F9D10020044BF522C875C8E704B070BDC7
:101D000054D3081004150228001502281C150228B7
:101D10001D1502280101020108B5054B1860FEF7E8
:101D2000B9FA00F0D9FD0020BDE8084000F03ABD46
:101D3000201502282DE9F04FDBB0A34F824608465C
:101D40000DF1240B07AE0DF11E040DF120080DF16D
:101D500022090D46CDE90332002333802380CBF8DE
:101D60000030A8F80030A9F800300AF0F5FD3B88F3
:101D7000CBF800000BB13B699847944B1B78002BC4
:101D800000F083803988002900F00181B9F8001043
:101D90000020FB6889B24A1CA9F8002052469847E7
:101DA00028460AF0D9FD7B88BA79CBF80000B3FB4E
:101DB000F2F3A8F8003015F8013B002BFBD123808B
:101DC00023889BB2012B06D9DBF80030002B15DBF2
:101DD0006A1C7F4918E0DBF80030002BF4DB15F8B3
:101DE000013D2F2B01D05C2B02D1238801332380AE
:101DF000DBF80030013BCBF80030E1E723882A46CE
:101E00009BB2002BE5D173491AA80DF1280B0AF0FB
:101E100019FDDFF8B4A10023338033881AAD9BB2DB
:101E2000284605930AF098FDB8F80020059B12B2E9
:101E3000B0FBF2F0013083422AD3049A2846664967
:101E40000AF000FDB9F80020F97992B2FB6811FBA5
:101E500002F1501C2A46A9F8000089B200209847D8
:101E6000039B93B100250DF1280A358003980AF0F1
:101E700073FDB6F800B0B8F800301FFA8BFB1BB248
:101E8000B0FBF3F00130834542D35BB0BDE8F08F87
:101E9000002323802288B8F8003092B21BB29A4205
:101EA0000DDA28460AF058FD22883388B8F8001069
:101EB0009BB209B24B4313FA82F3984217D223889C
:101EC0000020B9F800209AF807109BB292B20BF8E4
:101ED000030011FB02F1551CDAF80C305A4689B2A6
:101EE000A9F80050984733880133338095E721885B
:101EF0003388B8F8000015FA81F19BB2228800B24D
:101F000092B24343CB5C0BF8023023880133C0E725
:101F100025802288B8F8003092B21BB29A420DDABE
:101F200003980AF019FD22883388B8F800109BB294
:101F300009B24B4313FA82F3984215D22388B9F8B9
:101F40000020F9799BB292B20AF80350501CFB684A
:101F500011FB02F15246A9F80000002089B298470F
:101F600033880133338081E721883388B8F8000053
:101F70009BB2228800B292B24343039810FA81F1D7
:101F8000CB5C0AF80230238801332380C1E74FF489
:101F900080721AA80AF091FCBB6850469847039BD0
:101FA00053B100932A46049B1AA80C490AF04AFC34
:101FB000BB681AA8984768E7049B2A4608491AA8EC
:101FC0000AF040FCF4E700BF8415022881150228BE
:101FD00084D308108DD308109AD30810A3D3081007
:101FE000BCD308100146002001F0ABBD08B5074B7B
:101FF0001B7853B10649002001F0AEFD01220449CF
:102000000448BDE8084000F0D7B808BD8115022893
:10201000401502282815022873B50D46164620BB28
:10202000134B1B780BB3134B1C7804B1FEE7012252
:102030001A7000F0CDFB0023324629460E48FFF708
:1020400079FE009401940094009BB3F5805FF2D276
:102050000194019BB3F5005F03D3009B0133009310
:10206000F2E7019B01330193F3E702B070BD00BFBB
:10207000F00E022824150228D1D3081010B40C4603
:1020800011461A4638B9054B1B7823B1234604483C
:1020900010BCFFF74FBE10BC704700BF811502286F
:1020A000DED308104FF0FF33034AC0E900230023BA
:1020B000C0E90233036170470000FFFF30B5074BF2
:1020C00002690568D0E9024140681D60C3E9031256
:1020D000C3E901040122024B1A7030BD84150228A5
:1020E000811502287FB5074A4FF0FF3301A8CDE9DB
:1020F00001230023CDE90433034B0393FFF7DEFFF5
:1021000007B000BD0000FFFFE51F081008B5FFF78E
:10211000E9FF00234FF4E1311A46184601F054FF5D
:1021200040230021044A054800F09AF901210020CB
:10213000BDE8084001F06ABD4115022828150228B3
:1021400083681944436981608B4200D97047C91A7A
:102150008160F9E710B5044600384FF054020D498C
:1021600018BF0120FFF758FF637800216269012B37
:102170002261C4E9021108D0022B08D013B96068AB
:102180000AF09BFB0020207010BD5200F7E7920080
:10219000F5E700BFEAD3081010B5044600384FF049
:1021A0007002044918BF0120FFF736FFD4E904305C
:1021B000C01A10BDEAD308102DE9F84F04460038C4
:1021C0000E46154618BF0120AA224A49FFF724FFF0
:1021D000002E00F08980237813F0050840F08780F6
:1021E00043F0040323702369AB427AD3D4F81490EC
:1021F000D4F808B06378A9EB0B07BD4257D9012B7F
:1022000024D0022B3CD0BBB960683A4631465844D2
:10221000AB440AF093FB39462046ABEB0902FFF7CB
:102220008FFFF119D4E9010318440AF087FBABEBE7
:1022300009012046FFF784FF23695B1B2361237894
:1022400023F0040323704046BDE8F88F60687A00ED
:10225000314600EB4B00AB440AF070FB3946204698
:10226000ABEB090BFFF76CFF4FEA4B0206EB4701A4
:10227000D4E9013003EB40000AF060FB5946D8E78F
:102280006068BA00314600EB8B00AB440AF056FBA5
:1022900039462046ABEB090BFFF752FF4FEA8B02A2
:1022A00006EB8701D4E9013003EB8000E4E7012B62
:1022B0000BD0022B0FD0002BBED160682A463146CE
:1022C00058440AF03BFB2946B3E760686A00314690
:1022D00000EB4B00F5E76068AA00314600EB8B008D
:1022E000EFE74FF00508AAE74FF00308ABE74FF020
:1022F0000408A8E7EAD308102DE9F84F044600388F
:102300001746884618BF012040F25B1253499A468F
:10231000FFF782FE381E4FF4AE72504918BF0120FD
:10232000FFF77AFEB8F1000F00F08E8094F800906D
:1023300019F0030906D000234FF006093B60484618
:10234000BDE8F88F2046FFF727FF3B6883420AD994
:10235000386030B923784FF0070923F00803237061
:10236000EDE74FF007092378D4F814B043F00803E1
:10237000E5682370ABEB05063A686378B2422FD864
:10238000012B23D0022B26D023B961682944404673
:102390000AF0D4FA237823F008032370BAF1000F6F
:1023A000CDD122780B2A55D042F00203E168237088
:1023B0003B680B446169E360994248D9396822F06F
:1023C0000202236922700B442361B8E7616852005E
:1023D00001EB4501DBE76168920001EB8501D6E77F
:1023E000012B11D0022B1FD0002BD3D161683246B4
:1023F000404629440AF0A2FA3A68616808EB0600F0
:102400002A44A2EB0B02C3E761687200404601EB6D
:1024100045010AF093FA3A68616808EB46002A44DD
:10242000A2EB0B025200B3E76168B200404601EB39
:1024300085010AF083FA3B68616808EB8600EA18B8
:10244000A2EB0B029200A3E74FF00309A6E75B1A89
:10245000E360B1E74FF0020971E700BFEAD308106B
:10246000F8B5044600380E46174618BF01204FF451
:10247000077206491D46FFF7CFFD002067602070F8
:102480006670C4E90200C4E90455F8BDEAD3081037
:1024900038B5044600384FF07302104918BF0120C8
:1024A000FFF7BAFDC4B123782D2B05D101340122E9
:1024B000611E00200A2506E02B2B00D101340022EA
:1024C000F6E705FB003011F8013F303BDCB2092C88
:1024D000F7D902B1404238BD2046FCE70FD40810BE
:1024E00030B50446003885B00D4618BF01209F2244
:1024F0001649FFF791FD34B3002D21DA2D236D42EB
:1025000004F8013B00230A211A46013395FBF1F040
:1025100001FB10551032DBB2002D6A44B8BF6D428A
:1025200002F8105C05460028EED10DEB03022344AF
:102530009C4208D012F8011D303104F8011BF7E766
:10254000E0D13023237005B030BD00BF0FD4081098
:1025500010B5044600384FF4D2722B4918BF012041
:10256000FFF75AFD002C45D023782D2B06D10134DE
:102570000122B2EE046B9FED220B0DE02B2B00D15C
:1025800001340022F5E707EE903A0134B8EEE77B1C
:1025900000EE067BB0EE470B2178A1F13003D8B2F4
:1025A0000928F0D92E2922D1B7EE005B04F10A01E7
:1025B000B2EE044B9FED126B14F8013F303BD8B2E2
:1025C000092807D986EE057B30EE070B0AB1B1EE7C
:1025D000400B10BD8C42F5D007EE903A25EE045B1F
:1025E000B8EEE77B06EE047BB0EE476BE4E79FEDC9
:1025F000047BE9E79FED020BEBE700BFAFF3008040
:1026000000000000000000000FD40810F0B50446E0
:1026100000380D464FF4F17218BF01203D492DEDF1
:10262000028B97B0B0EE408BFFF7F6FC002C3FD04A
:10263000B5EEC08BF1EE10FA30D52D2304F8013B36
:10264000FDEEC87B2A4617EE903AB8EEE77B38EEEF
:10265000478BB2EE047B7ABB0A26114616A80132DC
:1026600000EB8101D2B293FBF6F006FB103341F888
:10267000303C03460028F0D10AA8A618214600EBFA
:102680008200B1421DD19DB1FDEEC87B2E20A05429
:1026900017EE903AF3B930234B7009E0B5EE408B5A
:1026A000F1EE10FACCD130232E2223706270A37089
:1026B00017B0BDEC028BF0BD013A28EE078BD2B209
:1026C000C9E750F8043D002BB8BF5B42303301F836
:1026D000013BD6E701A801312A460A270646013AFE
:1026E00093FBF7F412F0FF0207FB143346F8043BA8
:1026F0002346F4D100EB850555F8043D0131002B4C
:10270000B8BF5B42854203F1300301F8013CF3D1CD
:10271000CEE700BF0FD4081038B50446003840F2A9
:102720003722164918BF0120FFF776FC20460AF031
:1027300013F90021024608462378B9B1A3F16105D7
:10274000052D08D8573BDBB243EA0010013A04F1EB
:102750000104F1D209E0A3F14105052D01D8373B71
:10276000F1E7303BDBB2092BEED938BD302BEDD190
:102770006378782B04BF01340121E7E70FD40810F8
:1027800000284FEA411106DB00F1604000F561408E
:1027900080F80013704700F00F00014B1954704788
:1027A00014ED00E000B962B6024A13680133136009
:1027B000704700BF9815022872B6044B1A6812B110
:1027C0001A68013A1A601868704700BF9815022805
:1027D00008B5FFF7F1FFBDE8084000F09DBB000021
:1027E00070B504460E461546FEF71CFF314620889C
:1027F000FEF742FF2946B4F90200FFF7C1FFB4F922
:102800000230002B09DB5A09012103F01F03994014
:1028100002F16003084A42F82310B4F90230002B99
:1028200008DB0122590903F01F0302FA03F3024AED
:1028300042F8213070BD00BF00E100E04109104BBB
:10284000104A10B552F821201B5C00F01F00C3F1A4
:10285000020302EB80115B00D1F83C48DBB244F08C
:102860000104C1F83C48D2F800120029FBDB02EB5E
:102870008012D2F8240880B2184180B210BD00BF87
:102880009C15022804E2081038B54FF4FA534CF2B4
:102890005035002103FB00F40E48FFF721F8AC424D
:1028A00005D80C48FFF71EF8A042FAD938BD0948F0
:1028B000FFF718F8A842FAD90648A4F54344FFF7F1
:1028C00011F8A0F543410348503C5039FFF708F890
:1028D000E5E700BF0003594000B595B05022002144
:1028E000684609F0EAFF1C4B5B79DBB11B4B092002
:1028F000D3F8DC2D22F47F7121F0030141F48071C3
:1029000061F30F02C3F8DC2D154AD2F8001460F30E
:102910001721C2F8001413491A681140124A0A43D9
:102920001A601B684FF0FF33694610480093032379
:102930008DF84430012312938DF80730FEF730FFF5
:102940000A48FEF7C3FF00210848FEF7C9FF074801
:10295000FEF720FF15B000BDD0D9081000200440BC
:102960000030044000FC007C0001FF83000359405C
:1029700010B50C4636220B495F2C8CBF002001207D
:10298000FFF74AFB084B372206491878FFF744FB4C
:1029900004F520300121C002FFF716F980F0010094
:1029A000C0B210BD38D40810E415022810B50C468A
:1029B00046220A495F2C8CBF00200120FFF72CFB28
:1029C000074B064947221878FFF726FB04F520300D
:1029D0000121C002BDE81040FFF7B4B838D4081098
:1029E000E4150228F8B50C461E46054619495F2C29
:1029F00017464FF074028CBF00200120FFF70CFB3C
:102A0000B6F5007F4FF0750212498CBF00200120FF
:102A1000FFF702FB104B0F4976221878FFF7FCFAFC
:102A200021462846FFF7A4FF18B121462846FFF7A4
:102A3000BDFF04F520340025E402B54200D1F8BD05
:102A400007EB85012046012204340135FFF708F920
:102A5000F3E700BF38D40810E415022838B50C4657
:102A600015461B4992225F2C8CBF00200120FFF7E6
:102A7000D3FAB5F5007F4FF0930215498CBF0020C3
:102A80000120FFF7C9FA134B114994221878AD00C1
:102A9000FFF7C2FAE102002D01F1A0510D440DDD56
:102AA0000B46BFF34F8F0C48C0F85C322033EA1A54
:102AB000002AF9DCBFF34F8FBFF36F8F074BA9429A
:102AC00000D138BD51F8042B43F8042BF7E700BFC1
:102AD00038D40810E415022800ED00E0E8150228BB
:102AE00038B50C4615461049AB225F2C8CBF002030
:102AF0000120FFF791FAB5F5007F4FF0AC020A49CB
:102B00008CBF00200120FFF787FA084BAD22064951
:102B10001878FFF781FA2B46054A21460020FFF777
:102B200061FF002038BD00BF38D40810E41502282A
:102B3000E81502284FF40062FF21014809F0BDBEEC
:102B4000E815022808B50020FEF7D2FF014B01224C
:102B50001A7008BDE4150228C308012200F007001E
:102B6000DB01824003F1804303F5441309B19A600D
:102B700070475A607047C30800F00700DB0103F19B
:102B8000804303F544131B6923FA00F000F00100B1
:102B9000704770B504468EB01646E1B98B4214BF3B
:102BA00008250F253422002101A809F086FEC02C3B
:102BB00002950AD0E00801AA04F00701C00100F163
:102BC000804000F54410FEF76BF931462046FFF7D0
:102BD000C3FF0EB070BD042B14BF0E250F25E1E717
:102BE00002280AD0054B5B793BB1054B05491A68B1
:102BF0001140054A0A431A601B687047D0D9081073
:102C00000020044000FC007C0001FF83030A022B2B
:102C100014D00B4B5B798BB1C0B2800000F18040C7
:102C200000F58420D0F8003C23F47F7222F00302E8
:102C300042F4807262F30F03C0F8003C704700BF9B
:102C4000D0D90810022893BFC001C301044800F185
:102C500080408CBF181800F5B200FEF74ABE00BFD6
:102C6000807E5840F0B597B004465022CD0002A8AF
:102C7000002109F022FE022C4A4E43D804F27110C2
:102C8000FFF7C4FF484B5B793BB1484B0921D3F8B0
:102C9000002461F31722C3F800240120FFF7A0FFEE
:102CA00004F5D57356F82410E401ADF80030022382
:102CB00004F18044074603228DF8040004F5B204B1
:102CC0006846ADF80230FFF78BFD0023032202A90E
:102CD0002046ADF80C308DF80E308DF810308DF8A0
:102CE0004C20ADF8543002951497FEF759FD20465C
:102CF000FEF7ECFD2046FEF74DFD2046FEF7F4FD05
:102D000017B0F0BD04F5B1710846FFF77FFF080A60
:102D100002280AD0244B5B793BB1244B0921D3F81C
:102D2000002461F31722C3F80024FFF759FF04F2CF
:102D30009B13032256F82410ADF800300223684696
:102D4000ADF8023001238DF80430FFF749FD082368
:102D50000022B5F5803F24BF01326D08013BF8D158
:102D60008DF80C200322029502A9114D8DF84C20FC
:102D7000012205EBC4108DF80D308DF80E308DF862
:102D800010301492ADF85430FEF70AFD05EBC41074
:102D9000FEF79CFD05EBC410FEF7FCFC05EBC41030
:102DA000ACE700BFF40E0228D0D908100030044070
:102DB000807E584008B55D2800F29F80DFE800F073
:102DC000A3A3A7A72F31313333353537393B3D3FE7
:102DD0003F414143434547494B4B4D4D4F5153555F
:102DE000555759595B5D5F5F5F61616163636365FF
:102DF000656767696BA5A56D6D6F71717373757587
:102E000077797B7D7F7F81818383858789898B8BA0
:102E10008D8F919393959597979799999B9B022066
:102E200008BD0320FCE70420FAE70520F8E70620A8
:102E3000F6E70720F4E70920F2E70A20F0E70B2085
:102E4000EEE70C20ECE70D20EAE70E20E8E70F2084
:102E5000E6E71020E4E71120E2E71220E0E7132084
:102E6000DEE71420DCE71520DAE71620D8E7182083
:102E7000D6E71920D4E71A20D2E71B20D0E71C2080
:102E8000CEE71D20CCE71E20CAE71F20C8E7202080
:102E9000C6E72120C4E72220C2E72520C0E726207C
:102EA000BEE72720BCE72820BAE72920B8E72A2078
:102EB000B6E72C20B4E72D20B2E72E20B0E72F2074
:102EC000AEE73020ACE73120AAE73220A8E7332074
:102ED000A6E73420A4E73520A2E73620A0E7372074
:102EE0009EE738209CE739209AE73A2098E73B2074
:102EF00096E73C2094E73D2092E740F27B1205499B
:102F00000020FFF789F800208AE7242088E70120C5
:102F100086E700BF5ED408100022D301013203F11E
:102F200080433F2A03F5B003196821F0004119607E
:102F3000F3D17047F8B50F4D0F460646FFF73AFF3D
:102F400005EBC010046A3046FFF734FF42F21073FD
:102F5000A4B205EBC0107C43B4FBF3F4A4B244610B
:102F60003046FFF727FF05EBC0152B6C43F001033C
:102F70002B64F8BD000058402DE9F0410027AAB0AD
:102F800004460D46164639463422684609F095FC3B
:102F9000742239460DA809F090FC0E23342C0193BD
:102FA00000F0BA8040F2BE80A4F13503282B40F235
:102FB000B9804FF4867263493846FFF72DF89D2299
:102FC000604938468DF80870FFF726F84FEAD708B1
:102FD0005D2C4FEAC81808F1804808F5441804D958
:102FE0009D2258490020FFF717F807F007016A46AD
:102FF0004046FDF755FF2046FFF7DCFE524B5F7958
:103000009FB100F59373DBB29B0003F1804303F59E
:103010008423D3F8002C22F47F7121F0030141F4C2
:10302000807161F30F02C3F8002C2046FFF7C2FE47
:10303000002F79D0454B09210027D3F8002461F3F4
:103040001722C3F800242046FFF7B4FE3FB9404BD7
:1030500040491A681140404A0A431A601B683F4AB7
:103060002904B2FBF1F0B2FBF5F301FB10221B0CBB
:1030700002B10133012B59D9022B59D0042B59D954
:10308000082B59D9102B59D9202B59D9412B34BF92
:103090000622072204238DF8352020468DF834308F
:1030A0002F4B119300238DF83C302C4BD340B3FBB6
:1030B000F5F35A1E7343129242F21072B3FBF2F30D
:1030C000159302238DF8743003238DF89C3001236F
:1030D00028938DF85C30FFF76DFEC0010DA900F15B
:1030E000804000F5B000FEF70BFC2046FFF762FEC3
:1030F000C00100F1804000F5B000FEF7C5FC20469D
:10310000FFF758FEC00100F1804000F5B000FEF767
:1031100041FB2AB0BDE8F08116238DF80830114B31
:103120001F5D53E70823F8E701278CE70022B1E78A
:103130000122AFE70222ADE70322ABE70422A9E7B1
:103140000522A7E75ED40810D0D90810003004404B
:103150000020044000FC007C0001FF8300127A0084
:103160000100030310E20810214B082953F8201036
:103170000A6822F440420A601AD153F82030D3F88A
:10318000002222F01F02C3F80022D3F8002242F0EE
:103190000702C3F80022D3F8002322F01F02C3F86D
:1031A0000023D3F8002342F00702C3F8002370473E
:1031B00053F820100A6842F480420A6053F8203025
:1031C000D3F8002222F01F02C3F80022D3F8002215
:1031D00042F00F02C3F80022D3F8002322F01F02AE
:1031E000C3F80023D3F8002342F00F02DDE700BF4D
:1031F000300F022838B51D4D0C460821FFF7B4FFEB
:103200002B5C082B09D0D908194A03F0070302EBFD
:10321000C112012101FA03F31360164B53F8203059
:10322000C3F840421A6812F4404FD3F8082214BF82
:1032300040218021C2F308028A42F3D0D3F8082249
:10324000D3F80812C2F30802C1F3C031CA42F5D163
:103250002B5C082B09D0D908074A03F0070302EBBF
:10326000C112012101FA03F3136038BDE81D0228E1
:1032700004003140300F02280800314038B51D4DA0
:103280000C461021FFF770FF2B5C082B09D0D908E2
:10329000194A03F0070302EBC112012101FA03F3FB
:1032A0001360164B53F82030C3F840421A6812F4EA
:1032B000404FD3F8082214BF40218021C2F30802F6
:1032C0008A42F3D0D3F80822D3F80812C2F30802D6
:1032D000C1F3C031CA42F5D12B5C082B09D0D90803
:1032E000074A03F0070302EBC112012101FA03F3BD
:1032F000136038BDE81D022804003140300F022859
:103300000800314070B5204E0D4610211446FFF7DD
:103310002BFF335C082B09D0D9081C4A03F00703A4
:1033200002EBC112012101FA03F31360184B53F8A9
:10333000203035F8022BC3F840221A6812F4404FAF
:10334000D3F8082214BF40218021C2F308028A4228
:10335000F3D0013CEDD1D3F80822D3F80812C2F320
:103360000802C1F3C031CA42F5D1335C082B09D041
:10337000D908084A03F0070302EBC112012101FA40
:1033800003F3136070BD00BFE81D02280400314044
:10339000300F02280800314070B5254D0E46082137
:1033A0001446FFF7E1FE2B5C082B09D0D908214A0F
:1033B00003F0070302EBC112012101FA03F31360CA
:1033C0001D4B53F82030C3F840621A6812F4404F86
:1033D000D3F8082214BF40218021C2F308028A4298
:1033E000F3D0C3F840421A6812F4404FD3F80822D1
:1033F00014BF40218021C2F308028A42F3D0D3F8DF
:103400000822D3F80812C2F30802C1F3C031CA423D
:10341000F5D12B5C082B09D0D908084A03F0070323
:1034200002EBC112012101FA03F3136070BD00BF6A
:10343000E81D022804003140300F02280800314006
:1034400070B5314D0E4608210446FFF78DFE2B5C0A
:10345000082B09D0D9082D4A03F0070302EBC1124B
:10346000012101FA03F31360294B53F82430D3F8F8
:103470000823C2F308026AB1D3F8042342F480326D
:10348000C3F80423D3F8042322F48032C3F80423BE
:10349000D3F80423C3F84062D3F80823C2F3080228
:1034A000002AF9D0D3F8042342F48032C3F804236D
:1034B000D3F8042322F48032C3F80423D3F804237E
:1034C0000022C3F84022D3F80822D3F80812C2F32E
:1034D0000802C1F3C031CA42F5D1D3F80823C2F3C0
:1034E0000802002AF9D0D3F840032B5DC0B2082BA4
:1034F00009D0D908074A03F0070302EBC1120121E2
:1035000001FA03F3136070BDE81D02280400314086
:10351000300F0228080031402DE9F041354F884630
:10352000082115461E46FFF71FFE3A5C082A09D0FF
:10353000D108314B02F0070203EBC113012101FA5C
:1035400002F21A60DFF8B8C05CF82040D4F8083303
:10355000C3F308036BB1D4F8043343F48033C4F8E5
:103560000433D4F8043323F48033C4F80433D4F898
:103570000433C4F84082D4F80833C3F30803002BA3
:10358000F9D0D4F804332E4443F48033C4F8043320
:10359000D4F8043323F48033C4F80433D4F8043368
:1035A00000245CF82020C2F84042D2F80832D2F859
:1035B0000812C3F30803C1F3C031CB42F5D1D2F8EE
:1035C0000833C3F30803002BF9D0D2F8403305F8D1
:1035D000013BB542E5D13B5C082B09D0D908074A2D
:1035E00003F0070302EBC112012101FA03F3136098
:1035F000BDE8F081E81D0228040031400800314098
:10360000300F0228000000002DE9F0479CB09846DA
:1036100004460E4617460021342268469DF890A0C5
:103620009DF894909DF8985009F047F93C220021AC
:103630000DA809F042F9A4EB080C4FF4707284490C
:10364000DCF1000040EB0C00FEF7E6FCA8EB0A0EF4
:103650007F4940F2C132DEF1000040EB0E00FEF780
:10366000DBFC0623BAF1030F6A46019393BF1323D1
:10367000C02100238DF8083096BF764B8DF80830B6
:1036800013F80A10C80801F00701C00100F18040DA
:1036900000F54410FDF704FCB8F1030F4FF00603EA
:1036A0006A4688BFC021019397BF132300238DF87A
:1036B0000830694B8CBF8DF8083013F80810C80823
:1036C00001F00701C00100F1804000F54410FDF752
:1036D000E7FBB9F1040F19D00823B9F1030F6A46CB
:1036E0004FF00001019393BF1323C02000238DF8F6
:1036F000083096BF594B8DF8083013F809000001C7
:1037000000F1804000F54410FDF7CAFB082D18D0E9
:103710000623072D6A46019393BF1323C02100237C
:103720008DF8083096BF4E4B8DF80830595DC808AB
:1037300001F00701C00100F1804000F54410FDF7E1
:10374000AFFB484A022C04F10701D27994BF04F27E
:103750001F134FF48F73914243D2DBB29B0003F1EE
:10376000804303F58423D3F8002C42F4407261F3C4
:103770000702C3F8002CBA003B4BB3FBF2F000F198
:10378000FF3CBCF1807F24D202FB103307EE903A5D
:10379000B8EEE75B07EE902AB8EE677B85EE076B25
:1037A0009FED297B26EE077BFCEEC77B17EE903A58
:1037B0001F2B0ED82D4A04F6077052F820706CF3B8
:1037C0001F2742F8207052F8207063F3C70742F8B1
:1037D0002070274A274B1068034361F307031360E7
:1037E00013680123032E07D8DFE806F00205282A14
:1037F00000220F9200E00F93002608221E4F0421A2
:10380000129257F824000D938DF84C308DF84F30FC
:103810000E96CDE9101232460DA9FDF7D5FB57F8EB
:1038200024301A6A66F39B621A621A6842F00042F8
:103830001A60124B1D551CB0BDE8F0870222D8E774
:103840000322D6E7AFF300800000000000004040F4
:1038500082D408107AE208107EE2081076E208109E
:103860006EE20810D0D9081000B4C404000004406F
:10387000002004400003FF83300F0228E81D0228C7
:1038800010B5054C04EBC0142046FEF71FF8204687
:10389000BDE81040FDF77EBF8001594010B50446D9
:1038A000074800EBC410FEF71DF8064B1B5D012B0B
:1038B00014BF08234FF4FA53B0FBF3F010BD00BF60
:1038C00080015940EC1D0228C3010248002118184C
:1038D000FEF706B88001594030B595B004460D4654
:1038E00050220021684608F0E8FF234B1D5504F5DF
:1038F000BA731A0A022A25D0204A527912B3DBB2CF
:103900009B0003F1804303F58423D3F8002C22F4B9
:103910007F7121F0030141F4807161F30F020921ED
:10392000C3F8002C164BD3F8002461F31722154975
:10393000C3F80024A3F580531A681140124A0A43C1
:103940001A601B684FF0FF336946009303238DF81C
:103950004430012312938DF80730E3010B4C1C19FE
:103960002046FDF71DFF2046FDF7B5FF002120464C
:10397000FDF7B6FF15B030BDEC1D0228D0D90810F8
:103980000030044000FC007C0001FF8380015940AE
:10399000012810B51BD80E4C04EB8004E478A1423A
:1039A00015D2B2F1807F12D21F2B10D801EBC021AB
:1039B000084C01F5E06154F8210062F31F2044F83F
:1039C000210054F8212063F3C70244F8212010BDE0
:1039D000D0D9081000000440012811D8094B03EB8E
:1039E0008003DB7899420BD24003074B00F1804003
:1039F00000F580200268134361F307030360036846
:103A0000704700BFD0D908100003FF83B0F5007FD6
:103A10004FEA102315D20B4A02EB8302D27891426F
:103A20000FD2DB0253FA80F0800000F1804000F5F5
:103A30008020D0F8003C43F4407361F30703C0F8E2
:103A4000003C7047D0D908102A4BF0B553F820300D
:103A5000D3F80423D2B2002AD3F8C82F0CBF042114
:103A600001210A4039D001292ED1D3F8085300246E
:103A7000214EEDB2214F06EB0016A54219DD17F8D5
:103A800000C0D3F840E30CF1010206F80CE0D2B21A
:103A90000F2A3A5416D9D3F8042342F48032C3F8DB
:103AA0000423D3F8042322F48032C3F80423D3F888
:103AB0000423134A0124C3F8C01FD3F8C03F145491
:103AC0000120F0BD0134D8E702010B4CD3F840537C
:103AD000A5540124094A1454EBE7D3F8881F89053B
:103AE000EED54FF400711046C3F8801FD3F8803F25
:103AF000E7E700BF400F0228FD1D0228F61D02283F
:103B0000EF1D0228074B53F82000C0F84012D0F8F0
:103B10000832D0F80822C3F30803C2F3C032D342FC
:103B2000F5D17047400F022870B506460C468D1837
:103B3000AC4200D170BD14F8011B3046FFF7E2FF24
:103B4000F6E738B505464C1E14F8011F01B938BD1B
:103B50002846FFF7D7FFF7E770B50C4E0346305CF9
:103B600080B10B4D1C012A5D05EB03100A70094959
:103B7000CA5C013AD2B2CA542AB10134291908F0F8
:103B800083FE012070BDF254FBE700BFEF1D022849
:103B9000FD1D0228F61D02281B4B53F82030D3F8D8
:103BA000882F22F00102C3F8882FD3F8882F22F043
:103BB0000202C3F8882FD3F8882F22F02002C3F81E
:103BC000882FD3F8882F22F04002C3F8882FD3F82B
:103BD000882F22F01002C3F8882FD3F8882F22F400
:103BE0008072C3F8882FD3F8882F22F48062C3F83C
:103BF000882FD3F8C82F21B142F40072C3F8882F60
:103C0000704722F40072F9E7400F0228224B53F864
:103C10002030D3F8C82F22F00802C3F8C82FD3F8F9
:103C2000C82F22F02002C3F8C82FD3F8C82F22F4DF
:103C30008072C3F8C82FD3F8C82F22F40072C3F8DB
:103C4000C82FD3F8C82F22F40062C3F8C82FD3F8C6
:103C50000423D2B282B1D3F8C82F22F00402C3F8F1
:103C6000C82FD3F8C82F21B142F00102C3F8C82FE2
:103C7000704722F00102F9E7D3F8C82F22F00102C1
:103C8000C3F8C82FD3F8C82F11B142F00402EDE7F2
:103C900022F00402EAE700BF400F02280000000003
:103CA000B0EB121F2DE9F04F07461E460CBF012056
:103CB00000200D461446B6494FF411722DED028BCB
:103CC000A3B0FEF7A9F940F24522B7EB161FB049A1
:103CD0000CBF01200020FEF79FF93422002102A82A
:103CE00008F0EBFD00214C220FA808F0E6FDA94BDF
:103CF000E900312CB3FBF1FA01FB1A3307EE903ADD
:103D0000B8EEE76B07EE901AB8EE677B86EE075BBE
:103D10009FED9D7B25EE077BBCEEC78B00F0B68048
:103D200000F2A380202C00F0BB8000F29180002CD8
:103D300000F0C080102C00F0C7800024DE229449DF
:103D400000202546A346A146A046FEF765F9312E80
:103D500000F0F08000F2E080202E00F0F28000F20F
:103D6000D180002E00F0F480102E00F0F7804FF488
:103D7000917200208649FEF74FF900221646104640
:103D8000082331468DF810200DEB03020393FDF755
:103D900087F8062249464046039202AA8DF810B0E1
:103DA000FDF77EF8002208237B4E0421119356F87C
:103DB00027001A921C92CDE90F230223CDE9131399
:103DC000FDF7CEFA754B38220FA956F8270002FBF3
:103DD0000732FDF7C9F956F82720394628461368F7
:103DE00043F000431360FFF711FE0AF1FF3218EEB3
:103DF000103A280AFFF7CCFD3946280AFFF7ECFDF8
:103E00000323ADF8004001246846ADF802308DF878
:103E10000440FDF707FC624BBDF8000053F8271083
:103E2000FDF72AFCBDF90230002B06DB5A0903F02E
:103E30001F039C405B4B43F8224000213846FFF7AC
:103E4000E5FEFFF7A9FE23B0BDEC028BBDE8F08FC5
:103E5000302C7FF472AF692440F21B154FF0110B28
:103E60004FF00209DFF8408171E7502C36D0602C0A
:103E70003ED0402C7FF461AF68244FF48D754FF035
:103E8000130B4FF00109DFF8248160E7692440F249
:103E90001B154FF0110B4FF00109DFF8148156E7A5
:103EA0006A244FF48E754FF0110B4FF00109DFF8C3
:103EB00004814CE712244FF48C754FF0110B4FF036
:103EC0000109DFF8F48042E76B2440F21D154FF042
:103ED000110B4FF00109DFF8E48038E76D2440F260
:103EE0001F154FF0110B4FF00109DFF8D4802EE7BA
:103EF0006C244FF48F754FF0110B4FF00109DFF870
:103F0000C48024E7302E7FF432AF692440F21B15C1
:103F100011220126244833E7502E26D0602E2BD0C4
:103F2000402E7FF424AF68244FF48D7513220026B1
:103F30001E4825E7692440F21B15112200261C4863
:103F40001EE76A244FF48E7511220026194817E7E0
:103F500012244FF48C751122174811E76B2440F29C
:103F60001D151122002615480AE76D2440F21F1581
:103F700011220026124803E76C244FF48F7511229A
:103F800000261048FCE600BF000000000000404092
:103F9000A6D4081000B4C404400F0228701E0228E2
:103FA0005C0F022800E100E080083140000731404A
:103FB00080063140000531400000314000023140B0
:103FC0000001314080013140B0EB121F2DE9F04F6C
:103FD00007461E460CBF012000200D461446AE4980
:103FE0004FF421722DED028BA3B0FEF715F840F2CD
:103FF0008522B7EB161FA8490CBF01200020FEF751
:104000000BF83422002102A808F057FC00214C22B2
:104010000FA808F052FCA14BE900312CB3FBF1FAD8
:1040200001FB1A3307EE903AB8EEE76B07EE901AF1
:10403000B8EE677B86EE075B9FED957B25EE077BF1
:10404000BCEEC78B00F0A78000F29480202C00F01B
:10405000AC8000F28380002C00F0B180102C00F0C6
:10406000B8800024DE228C4900202546A346A146C4
:10407000A046FDF7D1FF312E00F0E18000F2D180A3
:10408000202E00F0E38000F2C280002E00F0E580D8
:10409000102E00F0E8804FF4917200207E49FDF769
:1040A000BBFF002216461046082331468DF810202B
:1040B00000260DEB03020393FCF7F2FE06224946AD
:1040C0004046039202AA8DF810B0FCF7E9FE0823DF
:1040D000DFF8F4811A96119358F827001C96CDE961
:1040E0000F630223CDE91336FDF73AF96C4B382202
:1040F0000FA958F8270002FB0732FDF735F858F8EA
:10410000272039462846136843F000431360FFF721
:104110007DFC18EE103A0AF1FF32280AFFF738FC4E
:104120003946280AFFF758FC032307226846ADF8F2
:1041300002300123ADF800408DF80430594B53F89C
:104140002710FEF74DFB31463846FFF75FFDFFF7BE
:1041500023FD23B0BDEC028BBDE8F08F302C80D165
:10416000692440F21B154FF0110B4FF00209DFF8E4
:10417000388180E7502C36D0602C3ED0402C7FF424
:1041800070AF68244FF48D754FF0130B4FF0010999
:10419000DFF818816FE7692440F21B154FF0110B0F
:1041A0004FF00109DFF8088165E76A244FF48E7546
:1041B0004FF0110B4FF00109DFF8F8805BE7122494
:1041C0004FF48C754FF0110B4FF00109DFF8E880C8
:1041D00051E76B2440F21D154FF0110B4FF0010910
:1041E000DFF8D88047E76D2440F21F154FF0110B20
:1041F0004FF00109DFF8C8803DE76C244FF48F755C
:104200004FF0110B4FF00109DFF8B88033E7302E83
:104210007FF441AF692440F21B1511220126224888
:1042200042E7502E26D0602E2BD0402E7FF433AFA5
:1042300068244FF48D75132200261C4834E7692446
:1042400040F21B151122002619482DE76A244FF46D
:104250008E7511220026174826E712244FF48C751C
:104260001122154820E76B2440F21D15112200266B
:10427000124819E76D2440F21F151122002610483C
:1042800012E76C244FF48F75112200260D480BE7BE
:104290000000000000004040A6D4081000B4C40490
:1042A000701E02285C0F0228800831400007314050
:1042B00080063140000531400000314000023140AD
:1042C0000001314080013140400F022870B50C469A
:1042D00005460A21204608F0F8FA48B1001B0130D3
:1042E000C3B20022013C1046984203D100200CE0EA
:1042F0000346F6E7511C14F8016F0130C9B2C0B291
:104300002C2E08BF0A46AA42EED170BD30B5014638
:1043100085B005460120FFF7D9FF441E29466846AF
:10432000E4B2224608F0F1FA04F1100368460DEBFE
:104330000304002304F8103CFEF70AF905B030BD71
:1043400030B5014685B005460120FFF7BFFF441E8A
:1043500029466846E4B2224608F0D7FA04F1100371
:1043600068460DEB0304002304F8103CFEF7F0F858
:10437000B7EEC00B05B030BD08B52DED108B9FED2D
:1043800024EB9FED259BB0EE41DB22EE0E2B20EEC1
:104390000E0B82EE09BB80EE09ABB0EE43CBB6EE5E
:1043A00000FB2DEE0EDB2CEE0ECB3AEE4B0B20EE8F
:1043B0000F0B06F019FFB0EE408BB0EE4A0B06F083
:1043C000C3FEB0EE40ABB0EE4B0B06F0BDFE8CEE84
:1043D000097BB0EE40BB8DEE090B2AEE0BAB30EE45
:1043E000470B20EE0F0B06F0FFFE20EE007B28EEC1
:1043F000080B0AEE070B06F067FD06F009FB30EE2E
:10440000000B9FED077BBDEC108B20EE070B08BD6A
:10441000282D4454FB210940000000000080664024
:1044200000000040A654584108B52DED108B9FEDBB
:104430002A8B9FED2BDB21EE081B23EE083B22EE9F
:10444000082B20EE080B81EE0D7B83EE0DFB82EE38
:104450000DBB80EE0D9B3FEE47FBB0EE4F0B06F021
:10446000C3FEB0EE40ABB0EE4B0B06F06DFEB0EE0F
:1044700040EBB0EE490B06F067FEB0EE40CBB0EE7D
:104480004B0B06F0B1FEB0EE40BBB0EE490B06F0B0
:10449000ABFEB0EE409BB0EE4F0B06F055FE2EEE9D
:1044A000099B29EE001B2AEE0E0B1CEE0B1B06F0DF
:1044B000DBFA20EE0DDB8DEE080BB5EEC00BF1EE56
:1044C00010FA03DC9FED087B30EE070BBDEC108B80
:1044D00008BD00BFAFF30080282D4454FB210940E4
:1044E0000000000000806640000000000080764070
:1044F0002DE9F04147F63003174E2DED028B86B0C3
:10450000019300238DF808303378012B40F013819C
:10451000124D02242A212846347008F0D6F922468A
:10452000411C0DF1060008F0F0F901A8FEF7F4F8BF
:104530002B46C0B213F8012F1F4613F8011F2A297A
:1045400007D182420CD0012006B0BDEC028BBDE841
:10455000F0814A40F1E700BF792102287820022843
:10456000C3490220FFF7B2FE2B5CC24C412B02D0A4
:10457000442B40F071810123BD4904202372FFF7D1
:10458000A5FE2B5C0620BA4984F82830FFF79EFE72
:104590002B5C0320B64984F82930FFF797FE2844A6
:1045A000FFF7B4FEB0EE408BB1490520FFF78EFE59
:1045B0002844FFF7ABFEFDEEC87B642017EE903A6F
:1045C00093FBF0F399B2638100FB01F307EE103A1D
:1045D000B8EEC77B9FEDA25B38EE478BFDEEC87B44
:1045E00017EE903AA3819BB207EE103AB8EEC77B64
:1045F00038EE477B27EE057BBDEEC77BFDEEC07B2B
:1046000017EE103AE38117EE903A93FBF0F39AB26B
:104610002382504307EE900A0720B8EEE77B30EE86
:10462000470BFDEEC07B17EE903A63829BB207EE1C
:10463000103AB8EEC77B30EE477B27EE057B9FED47
:104640008A5BBDEEC77B07EE901A88EE054B884962
:1046500017EE103A80EE056BA382B8EEE77B37EEDB
:10466000047B84ED067B07EE902AB8EEE77B37EEFD
:10467000067B84ED087BFFF729FE2844FFF760FEE8
:10468000DFED7D7A7A49082020EE270A84ED0B0AB7
:10469000FFF71CFE2844FFF753FE84ED0C0AEB796C
:1046A000092095F80880303BAA7A714903EB83030F
:1046B000303A08EB4308A8F1300323716B7A303BA2
:1046C00003EB830302EB43032A7B6371303AEB7AFB
:1046D000303B03EB830302EB4303A371FFF7F6FDCB
:1046E0002B5C3A5C303B654F03EB8303791C02EB98
:1046F0004302095CA2F13003E3703B5C303B03EB07
:10470000830301EB4301BB1C03371B5CA1F13005A4
:10471000385CA8F12807303BEDB2FFB203EB83030E
:10472000A570172F00EB430000F5F4639BB22380C4
:1047300000F2AE8027710023514F33703B78012B7C
:1047400053D1504D02242A2128463C7008F0BDF870
:104750002246411C0DF1060008F0D7F801A8FDF72C
:10476000DBFF2B46C0B213F8012F13F8011F2A29D3
:1047700040F0CA8082427FF4E6AE42490220FFF751
:10478000A5FD2B5C2C2B30D03E490720FFF79EFD6A
:104790002E1801203146FFF799FD441E314603A82B
:1047A000E4B2224608F0B1F804F1180303A80DEBB7
:1047B0000304002304F80C3CFDF76AFE2D4C31493C
:1047C00084F83C000920FFF781FD2844FFF7B8FD7D
:1047D000B0EE408A2B490B20FFF778FD2844FFF705
:1047E000AFFD38EE008A84ED108A0023264D3B7021
:1047F0002B78012B2DD1254C02262A2120462E7004
:1048000008F063F83246411C0DF1060008F07DF80F
:1048100001A8FDF781FF2346C0B213F8012F13F85A
:10482000011F2A2972D182427FF48DAE17490220DE
:10483000FFF74CFD235C0F4E412B69D1012013493A
:1048400086F83400FFF742FD2044FFF779FD86ED3E
:104850000E0A0020287077E6002323721FE700BFAE
:10486000000000000070B7400000000000004E4053
:104870007820022818220228CDCCEC3F7A2002288A
:104880007A210228F820022878210228F81F02281D
:10489000A8F140082F3A0B2DD2B284F8048020D81A
:1048A0000127AF4017F4256F19D1022D19D19D07AB
:1048B00006D16427B3FBF7F507FB1535ADB295B903
:1048C0004FF4C875B3FBF5F705FB17339BB2002B0C
:1048D0000CBF1D231C239A4207D8E2702BE71E232E
:1048E000F9E71F23F7E71D23F5E70123E370A1F1A3
:1048F0002F03DBB20C2B85BF3B3900F2A170A370F4
:10490000A17088BF208016E74A402EE74A4086E71C
:10491000002386F834309CE71FB500230193344B05
:104920001B787BB30DF103010320FFF715F958BB8A
:104930009DF803300A2B25D1062301AA02A92D4890
:1049400001930123FDF7D8FC03222B490DF10B0045
:1049500007F0C9FF0446F0B9284B1A78022A0BD099
:10496000012224481A70FDF717FC234601AA2449A6
:1049700001902048FDF7C0FC1E48FDF7EBFB214BE2
:1049800001221A7004B010BD01220DF10301194873
:10499000FDF712FCC6E703221B490DF10B0007F0DF
:1049A000A2FF044668B9194B1A78022AE4D0012202
:1049B00010481A70FDF7F0FB234601AA1449019034
:1049C000D7E7032213490DF10B0007F08CFF0446D3
:1049D0000028D1D1104B1A78022ACDD001220548E7
:1049E0001A70FDF7D9FB234601AA0C490190C0E7D4
:1049F00014220228FC210228CBD408107921022895
:104A00007820022860220228CFD408107A210228B8
:104A1000F8200228D3D4081078210228F81F022891
:104A2000F0B58D4BA9B0054621AC03F118071A4625
:104A30001868083353F8041C2646BB4203C63446A4
:104A4000F6D118686C46854B012D30605968D069E5
:104A500003C41889997A2080A17003ACD2F827008A
:104A6000D3F80F1003C4B3F81300597D2080A17050
:104A700006ACD2F83200D3F81A1003C4D88B93F8DE
:104A800020102080A17009ACD2F83D00D3F8251089
:104A900003C493F82B10B3F829002080A1700CAC4C
:104AA000906C196B03C4988E93F836102080A17017
:104AB0000FACD2F85300D3F83B1003C4B3F83F0057
:104AC00093F841102080A17012ACD2F85E00D3F8A8
:104AD000461003C4B3F84A0093F84C102080A1702C
:104AE00015ACD2F86900D3F8511003C4B3F85500DF
:104AF00093F857102080A17018AC506FD96D03C483
:104B0000B3F8600093F862102080A1701BACD2F85B
:104B10007F00D3F8671003C4B3F86B0093F86D10EF
:104B20002080A1701EACD2F88A00D3F87210B3F8BE
:104B3000762093F8783003C42280A37078D1802344
:104B4000474A00214748FDF78BFC4FF4FA70FDF708
:104B50009BFE31234FF4E13103201A46FFF734FA6C
:104B60001C2221A90320FEF7DFFFC820FDF78CFEE1
:104B70000B2203A90320FEF7D7FF3220FDF784FEA6
:104B80000B2269460320FEF7CFFF3220FDF77CFEA3
:104B90000B2206A90320FEF7C7FF3220FDF774FEA3
:104BA0000B2209A90320FEF7BFFF3220FDF76CFEA0
:104BB0000B220CA90320FEF7B7FF3220FDF764FE9D
:104BC0000B220FA90320FEF7AFFF3220FDF75CFE9A
:104BD0000B2212A90320FEF7A7FF3220FDF754FE97
:104BE0000B2215A90320FEF79FFF3220FDF74CFE94
:104BF0000B2218A90320FEF797FF3220FDF744FE91
:104C00000B221BA90320FEF78FFF3220FDF73CFE8D
:104C10001EA90B220320FEF787FF3220FDF734FE8A
:104C2000114B29461D700320FEF7F0FF29B0F0BD9F
:104C3000022DFBD180230A4A00210A48FDF710FC0F
:104C400031234FF4E13103201A46FFF7BDF901216A
:104C5000054B1970E7E700BF82E208109EE20810DA
:104C60007B210228FC2102281422022838B5064C98
:104C700008250A460146C4F884570220FEF78CFB3B
:104C8000C4F8885738BD00BF0000314037B50D4C1F
:104C900008256A460623A8210220C4F88457FEF797
:104CA0003BFCC4F88857084BBDF800201A80BDF8BB
:104CB0000220064B1A80064BBDF804201A8003B070
:104CC00030BD00BF00003140662202286422022865
:104CD0006222022837B50E4C08256A460623A22117
:104CE0000220C4F88457FEF717FCC4F88857BDF8B3
:104CF0000030084A073B1380BDF80230064A0633ED
:104D00001380BDF80430054A0233138003B030BD70
:104D1000000031406C2202286A2202286822022800
:104D2000F0B5142085B0FDF7AFFD08250223294A10
:104D300000214FF4807418460093274ECDE90135C9
:104D4000FEF762FC012203237B201146FDF721FFC1
:104D50008F210220C6F88457FEF772FB0746C6F87B
:104D600088570120FDF790FD6B2F26D103210D20E0
:104D7000FFF77CFF3C211020FFF778FF5C2111201A
:104D8000FFF774FF44211220FFF770FF0221132068
:104D9000FFF76CFF00211420FFF768FF00211520AA
:104DA000FFF764FF00211620FFF760FF18200121A4
:104DB000FFF75CFF002005B0F0BD013CA4B2002C61
:104DC000C6D1204640F20D13044A0549FDF756F9B5
:104DD0000120F0E78096980000003140D7D40810F9
:104DE00000D5081038B5114B0146114C08251B7829
:104DF0003BB90120C4F8045BFEF7FCF9C4F8085B7A
:104E000038BD10230422C4F80456C4F8043BC4F887
:104E100008260222C4F88006C4F80426C4F808262E
:104E2000C4F80856C4F8083BEAE700BF6F2202281E
:104E3000000031400D4B014610B41B781BB9012016
:104E400010BCFEF7D7B90A4B022408220420C3F88D
:104E50008016C3F80426C3F80806C3F80446C3F84E
:104E60000846C3F8082610BC704700BF6F2202280E
:104E700000003140144B0A4610B41B7823B9014698
:104E8000012010BCFEF73EBA104B0821C3F80416EF
:104E90000421C3F80816022122B90822C3F8082603
:104EA00010BC7047C3F80416013A0488C3F808160A
:104EB000240AC3F80416C3F8804610F8024BC3F85E
:104EC0000816C3F88046E7E76F2202280000314049
:104ED0000E4B01461B7813B90120FEF7CFB90C4BDE
:104EE00008200422C9B2C3F80406C3F80826022227
:104EF000C3F88016C3F80426C3F80826C3F80426AE
:104F0000C3F80826C3F80806704700BF6F220228BE
:104F1000000031402DE9F843DFF898900746DFF8AC
:104F200098800D46B9F800001646214940F2491212
:104F3000B8421C4694BF00200120FDF76DF8B8F878
:104F400000004FF4A5721A49A84294BF0020012026
:104F5000FDF762F8B9F8000040F24B121449B04274
:104F600094BF00200120FDF757F8B8F800004FF477
:104F7000A6720F49A04294BF00200120FDF74CF813
:104F80002A20FFF72FFF3846FFF7A2FF3046FFF732
:104F90009FFF2B20FFF726FF2846FFF799FF2046AB
:104FA000FFF796FF2C20BDE8F843FFF71BBF00BFBB
:104FB0001BD50810800F02287E0F02282DE9F84328
:104FC000204D6946DFF8888000AF2A8853000733F8
:104FD000DB08A1EBC3039D4698F800306E461BB971
:104FE000194B0821C3F80416DFF868900021013A34
:104FF000B9F80030084692B2013B9BB2FFF78AFF36
:10500000124B324619882B8806EB43039A420FD184
:105010000024B9F80020A3B29A420CD898F80030C6
:105020001BB9094B0822C3F80826BD46BDE8F88322
:1050300022F8021BEAE7298830460134FFF71AFFFD
:10504000E7E700BF800F02280000314070220228ED
:105050006F2202287E0F02280B4B0128187003D9FB
:105060000238012808D97047084BF0221A804FF403
:10507000A072074B1A807047044B4FF4A0721A803D
:10508000F022034BF6E700BF6E220228800F0228B1
:105090007E0F0228484B2DE9F04105461888C0B024
:1050A0000E46A8424549904640F25D2294BF00203A
:1050B0000120FCF7B1FF424B424F40F25E221888BC
:1050C0003E49B04294BF00200120FCF7A5FF3B7889
:1050D0001BB93D4B0822C3F804263C4B1C7854B145
:1050E000012C30D03B781BB9374B0822C3F8082677
:1050F00040B0BDE8F081F31D6A1D314628469BB2E1
:1051000092B2FFF707FF324B324A1E88324B1D889E
:10511000062303FB08226B4612F8010F002110F052
:10512000010F4FEA500014BFAC46B44623F811C03B
:1051300006313029F3D101340233062CECD1684614
:10514000FFF798FECEE706F10F03EA1D3146284629
:105150009BB292B2FFF7DEFE1D4B204A0020B3F84F
:1051600000C01D4B02EB08121E886B4612F8015F4F
:105170000021147A15F0010F4FEA550514BFB64609
:10518000E64623F811E008314029F3D1002103F16C
:10519000800514F0010F4FEA540414BFB646E646EA
:1051A00025F811E008314029F3D1013002330828F5
:1051B000DCD18021C3E700BF800F02281BD5081077
:1051C0007E0F02286F220228000031407B0F022848
:1051D000702202282BD908107C0F022813DA08103D
:1051E0001B4B2DE9F041054618880E461746A8428C
:1051F00040F2BA2217494FF0000494BF002001206A
:10520000FCF70AFF144BDFF8548040F2BB221888E9
:105210001049B04294BF00200120FCF7FDFEA3B26C
:10522000FA5C0AB9BDE8F08198F800301BB1012B97
:105230000AD00134F3E704EB440005EB40003146AB
:1052400080B2FFF727FFF4E705EBC400F7E700BFE4
:10525000800F02281BD508107E0F02287B0F022822
:10526000F0B51C46264B064685B018880F461546F5
:105270002449B0424FF4367294BF00200120FCF75D
:10528000CBFE214B40F2D9221E491888B84294BF68
:1052900000200120FCF7C0FE201E40F2DA2219494E
:1052A00018BF0120FCF7B8FE0A2C40F2DB2215499A
:1052B0008CBF00200120FCF7AFFE0023621C2021E0
:1052C00001A80393CDE9013307F0F7FA092C14D9AB
:1052D000294601A8FDF704F901AA39463046FFF72F
:1052E0007FFF05B0F0BD013C5343E4B2002CFAD17E
:1052F00095FBF3F203FB1255EAE701230A22F5E7D7
:10530000800F02281BD508107E0F0228F0B51D461D
:10531000394B064614460F4640F2293237492DEDE7
:10532000028B188887B0B0EE408BB04294BF00204B
:105330000120FCF771FE324B40F22A322F491888C7
:10534000B84294BF00200120FCF766FE201E40F208
:105350002B322A4918BF0120FCF75EFE082C4FF4BF
:105360004B7226498CBF00200120FCF755FE281EF9
:1053700040F22D32214918BF0120FCF74DFE062DC9
:1053800040F22E321D498CBF00200120FCF744FE64
:105390001122002101A807F090FA6219202101A82A
:1053A000023207F08AFAB7EE006BB2EE047BF4B972
:1053B000FDEEC67B2946BDEEC87B01A8B0EE480BCA
:1053C00017EE903A17EE102A92FBF3F307EE103A1D
:1053D000B8EEC77B07EE460BFDF718F901AA394670
:1053E0003046FFF7FDFE07B0BDEC028BF0BD013C7F
:1053F00026EE076BE4B2DAE7800F02281BD508100F
:105400007E0F02282DE9F04380468BB0DA4EDB4D4B
:10541000DB4FDFF89493002870D1B42301240822D5
:1054200030702B705823014620463B70632389F867
:10543000003004230094CDE901322346D14AFEF71F
:10544000E3F8032342462146B320FDF7A2FB0323E2
:10545000424621462878FDF79CFB0323224621463D
:1054600099F80000FDF795FB032322462146387882
:10547000C54CFDF78EFB4FF00109DFF83083207833
:10548000FFF7EAFD3B784FF08007C049DA0803F0E8
:105490000703052012FB078209FA03F313602B7838
:1054A000DA0803F0070312FB071209FA03F313608B
:1054B000FDF7EAF92B787820DA0803F0070312FBEE
:1054C000078209FA03F31360FDF7DEF933781BB99D
:1054D000AF4B0822C3F804261120FFF783FC782085
:1054E000FDF7D2F93620FFF77DFC2378032B64D833
:1054F000DFE813F060003301350137015823012440
:10550000B32000223B7063232146287089F80030C5
:1055100003233470FDF73DFB032300222146387836
:10552000FDF737FB03232246214699F80000FDF7DB
:1055300030FB0323002221466220FDF72AFB0323D0
:10554000002221466120FDF724FB03232246214649
:10555000B420FDF71EFB0323224621466820FDF7F9
:1055600018FB0323224621466920FDF712FB032383
:10557000224621466A20FDF70CFB032322462146E2
:105580006B20FDF706FB0323224621466C20FDF726
:1055900000FB0323224621466D20FDF7FAFA032380
:1055A000224621466E20FDF7F4FA032322462146C7
:1055B0006F205DE70020FFF73DFC3A20FFF712FC6B
:1055C0000520FFF737FCB220FFF70CFC0C20FFF79B
:1055D00031FC0C20FFF72EFC0020FFF72BFC3320C2
:1055E000FFF728FC3320FFF725FCB720FFF7FAFB75
:1055F0003520FFF71FFCBB20FFF7F4FB2920FFF746
:1056000019FCC220FFF7EEFB0120FFF713FCC320BB
:10561000FFF7E8FB1920FFF70DFCC420FFF7E2FBC2
:105620002020FFF707FCC520FFF7DCFB1A20FFF75F
:1056300001FCC620FFF7D6FB1F20FFF7FBFBD020A5
:10564000FFF7D0FBA420FFF7F5FBA120FFF7F2FB4B
:10565000E020FFF7C7FBD020FFF7ECFB0820FFF7A7
:10566000E9FB0E20FFF7E6FB0920FFF7E3FB09202B
:10567000FFF7E0FB0520FFF7DDFB3120FFF7DAFB4A
:105680003320FFF7D7FB4820FFF7D4FB1720FFF7A5
:10569000D1FB1420FFF7CEFB1520FFF7CBFB312009
:1056A000FFF7C8FB3420FFF7C5FBE120FFF79AFBAB
:1056B000D020FFF7BFFB0820FFF7BCFB0E20FFF751
:1056C000B9FB0920FFF7B6FB0920FFF7B3FB152054
:1056D000FFF7B0FB3120FFF7ADFB3320FFF7AAFB4C
:1056E0004820FFF7A7FB1720FFF7A4FB1420FFF7C4
:1056F000A1FB1520FFF79EFB3120FFF79BFB342019
:10570000FFF798FB2120FFF76DFB2920FFF76AFBCD
:1057100033781BB91E4B0822C3F80826FFF74EFC4E
:1057200005A8FCF7BFFC0123ADF81430194B1B880A
:10573000ADF81630184B1B88ADF81830174B1B7896
:105740008BB1012B14D0164B05A80893154B099368
:10575000FCF7B4FC0BB0BDE8F083C0202BE7702051
:1057600029E7A02027E740F60603ADF81A30EAE75C
:1057700041F20803F9E700BF6F2202287A0F0228DE
:10578000790F022880C3C9016E220228040031402B
:1057900000003140800F02287E0F02287B0F022874
:1057A000E1510810BD4F0810780F02280800314061
:1057B000F8B5154B1B782BB3144C08260423144F53
:1057C0008025C4F80863C4F80433C4F80463C4F83B
:1057D0000833C4F80863C4F804330720013DC4F853
:1057E0000463FDF72BF827F8020B0420FDF726F8D9
:1057F00015F0FF05A7F8FE00C4F80863EDD1054BCE
:1058000001221A70F8BD00BF732202280000314047
:10581000742202287222022870470000054B18707B
:10582000054B002918BF0B4605280CBF034A044A44
:10583000136070477424022819580810840F022836
:10584000880F022838B502202F4DFEF727F80446AE
:105850000220FEF739F840F6B8339C4201D9002304
:105860002B702B78182B01D900232B702978052059
:10587000264C2144FEF770F9002843D02B780133E1
:105880002B702B78192B3DD123780F2B3AD1237E07
:10589000002B37D1B4F801301D4AC3F30A03A078B6
:1058A0001380E37859019B0941EAD0012079C1F3C3
:1058B0000A0143EA8003A0795180617943EA812398
:1058C000C3F30A039380C30143EA5103C3F30A03FA
:1058D000D380E3791901DB0941EA1011C1F30A0110
:1058E0001181217A43EA4103617A43EA4123C3F3F8
:1058F0000A035381E37DC3F3800383F00103137331
:105900000123537338BD00BF752402287624022872
:105910009024022808B550230A4905201A46FEF7AC
:10592000BFF900210220FDF7D7FF07490520FFF747
:1059300075FF05200121FEF769F90220BDE8084046
:10594000FDF79EBFA086010045580810134991ED50
:10595000167AB5EEC07AF1EE10FA02DC104B93ED38
:10596000257AD1ED177AF5EEC07AF1EE10FA02DC65
:105970000B4BD3ED307A0B4A002382ED257AC2F827
:10598000A430C2ED307AC2F8D0309367064AC2F82C
:10599000A43000B90B6E054A136070478C0F0228C3
:1059A00010C8022828C90228F8C60228E0240228C4
:1059B00008B5084B93ED190AD3ED187A20EE000ACA
:1059C00007EEA70AB7EEC00A05F07EFAB7EEC00BE5
:1059D00008BD00BF28C90228174B40F28A22196867
:1059E000914223D91B68A3F28A23B3F5617F20D2A9
:1059F00007EE903A9FED117A9FED110AF8EEE77AE3
:105A0000C7EE876A9FED0F7AF0EE407A46EE877A0E
:105A1000F4EEC07AF1EE10FA0DD4B7EE000AF4EE0F
:105A2000C07AF1EE10FA30FE270A70479FED060AA1
:105A30007047B7EE000A7047DC240228000061447A
:105A40009A99193E9A99593F00000000B7EE000A52
:105A500007EE100A69B107EE901AB8EE477AF8EE31
:105A6000677AC7EE276AF4EEC06AF1EE10FA30FEEC
:105A7000260A7047164810B542F21074B0F90610A5
:105A8000A142A8BF214621EAE17101F0C7F91148FE
:105A9000B0F90610A142A8BF214621EAE17101F048
:105AA000BDF90D48B0F90610A142A8BF214621EA70
:105AB000E17101F0B3F90948B0F90610A142A8BF9D
:105AC0002146BDE8104021EAE17101F0A7B900BF0D
:105AD00008250228FC240228F0240228E4240228B5
