:020000041008E2
:1000000080F00228738D08105C8E0810608E081036
:100010007C8E08107E8E0810808E08100000000074
:10002000000000000000000000000000828E0810A8
:100030009C8E0810000000009E8E0810A08E0810F4
:10004000210308105103081081030810B1030810A0
:10005000E10308101104081041040810710408108D
:10006000A28E0810A48E0810A68E0810A88E081064
:10007000AA8E0810AC8E0810AE8E0810B08E081034
:10008000F0B54C4D87B000F035F96C460FCD0FC47C
:1000900095E803006B46002284E80300694618686F
:1000A000440700D0FEE758680130400700D0FEE763
:1000B00001320833032AF2D13F4B1C68630700D09A
:1000C000FEE73E4B1A68013212F0070000D0FEE74F
:1000D00005460026002704F1FF3ED1E9003C0BB1A4
:1000E0009C425DD364455BD8734551D31346634549
:1000F00051D301350831032DEFD1314A314B32490B
:100100001446C3F38703C5B2AB424CD82F4B9A6059
:100110005A6912F4003211D1BFF34F8FBFF36F8FC2
:10012000C3F85022BFF34F8FBFF36F8F5A6942F469
:1001300000325A61BFF34F8FBFF36F8F234B5A6961
:1001400012F4803222D1C3F88420BFF34F8FD3F84A
:10015000800043F6E074C0F34E32520102EA040616
:10016000C0F3C90146EA81750139C3F86052F9D27A
:10017000203A12F1200FF1D1BFF34F8F5A6942F4A8
:1001800080325A61BFF34F8FBFF36F8F07B0F0BD5E
:10019000E3E80267A8E7E3E80267A8E7E3E80267A5
:1001A0006345FBD3A5E751F8045B013044F8045BD9
:1001B000A9E700BFA8C00810548E0810588E081078
:1001C00000CC0228800000000000081000ED00E0D4
:1001D00030B5264D87B00FCD6C460FC495E80300AF
:1001E00084E80300684600F013FA88B1204B214AE6
:1001F00003F11800114653F8044B834242F8044BB4
:10020000F9D100201C4B4E22C8751A6001F03CFA4F
:100210001A4C204600F04EFC78B1154B154A03F1FC
:100220001800114653F8044B834242F8044BF9D1AD
:100230000020114B5022C875E7E72368104A114986
:10024000136003F5742203F2E73302F23F22B2FB9C
:10025000F1F20D490A604FF47A72B3FBF2F30B4AE4
:100260001360DB030A4A136007B030BD9CC7081057
:10027000C0C00810C4140228C01402281014022898
:100280000C14022840420F0004140228081402280B
:1002900000140228164A002370B4C2F88430BFF359
:1002A0004F8FD2F8800043F6E074C0F34E335B0109
:1002B00003EA0406C0F3C90146EA81750139C2F8B0
:1002C0007452F9D2203B13F1200FF1D1BFF34F8FBD
:1002D000BFF36F8FBFF34F8FBFF36F8F0023C2F851
:1002E0005032BFF34F8FBFF36F8F70BCFFF770BFFB
:1002F00000ED00E008B508F035FD074AD2F8883077
:1003000043F47003C2F88830BFF34F8FBFF36F8F91
:10031000BDE8084008F02ABD00ED00E0FEE700005F
:1003200008B5084BD3F80031002B05DAC3F30903F5
:10033000054A52F823309847044B0122C3F8802124
:1003400008BD00BF000020400408022800E100E0D2
:1003500008B5084BD3F80431002B05DAC3F30903C1
:10036000054A52F823309847044B0222C3F88021F3
:1003700008BD00BF000020400408022800E100E0A2
:1003800008B5084BD3F80831002B05DAC3F309038D
:10039000054A52F823309847044B0422C3F88021C1
:1003A00008BD00BF000020400408022800E100E072
:1003B00008B5084BD3F80C31002B05DAC3F3090359
:1003C000054A52F823309847044B0822C3F880218D
:1003D00008BD00BF000020400408022800E100E042
:1003E00008B5084BD3F81031002B05DAC3F3090325
:1003F000054A52F823309847044B1022C3F8802155
:1004000008BD00BF000020400408022800E100E011
:1004100008B5084BD3F81431002B05DAC3F30903F0
:10042000054A52F823309847044B2022C3F8802114
:1004300008BD00BF000020400408022800E100E0E1
:1004400008B5084BD3F81831002B05DAC3F30903BC
:10045000054A52F823309847044B4022C3F88021C4
:1004600008BD00BF000020400408022800E100E0B1
:1004700008B5084BD3F81C31002B05DAC3F3090388
:10048000054A52F823309847044B8022C3F8802154
:1004900008BD00BF000020400408022800E100E081
:1004A000062810B512D9124B124A03F11800114652
:1004B00053F8044B834242F8044BF9D100200E4B11
:1004C0004FF4CE72C8751A6001F0DEF80B4A00F5E1
:1004D000906352F8233003F00703042B06D1403019
:1004E00052F8203003F01F0343F48073184610BD08
:1004F000F8C00810C4140228C014022800002640C6
:10050000154AD2F83035C3F31101C3F3006301601B
:10051000C371D2F83435C3F30C01C3F307438180B0
:1005200003814381D2F83835C3F303010173C3F368
:1005300003114173C3F30C21C3F30173C18103742D
:10054000D2F83C35C3F302228271C3F30842C3F3ED
:10055000807342820375704700102640C31E012B32
:1005600015D800F27D500B4B53F82030002003F0DB
:100570007F020A60C3F304224A60C3F304428A6024
:10058000C3F30172C3F3C0634A730B737047012056
:10059000704700BF00002640431E012B10B533D822
:1005A0001A4C1B0104EB001403F18043D4F8F0282B
:1005B00003F51813D0B20860C2F304204860C2F3F8
:1005C0000440C2F3017288600A73D4F8F428C2F3BD
:1005D000C0704873C2F3076022F07F4200F07000E1
:1005E0000A6141F60812003818BF01208873002004
:1005F0009B58C3F3C0728B750A75C3F30062C3F3D3
:1006000002434A75CB7510BD0120FCE7001026405F
:1006100030B50446054D0FCC0FC5054B012294E8BB
:1006200003001A7085E80300002030BD181402286A
:1006300014140228074BD3F81835DB0F08D0064BEB
:100640001B782BB1054B00221B68036010467047D6
:100650000322FAE700102640141402281814022876
:100660000A4BD3F82425920704D4D3F8243513F089
:10067000010308D0064B1B782BB1064B00229B6868
:100680000360104670470322FAE700BF00102640BF
:100690001414022818140228054B1B782BB1054BA3
:1006A00000225B680360104670470322FAE700BF30
:1006B0001414022818140228074BD3F80835DB0F4E
:1006C00008D0064B1B782BB1054B0022DB6803607A
:1006D000104670470322FAE700102640141402283F
:1006E00018140228074BD3F80C35DB0F08D0064B43
:1006F0001B782BB1054B00221B6903601046704725
:100700000322FAE7001026401414022818140228C5
:10071000084B1B695A0708D5074B1B783BB1074BA1
:1007200000225B69036010467047C3F38003032215
:10073000F8E700BF0000274014140228181402280C
:1007400010B50C46FFF7ACFEB0F5887F24D008D872
:10075000012817D002281AD078B100230320236083
:1007600010BD40F2111398421BD0B0F58A7FF4D12E
:100770002046BDE81040FFF7B5BF2046BDE8104059
:10078000FFF758BF2046BDE81040FFF785BF204661
:10079000BDE81040FFF764BF2046BDE81040FFF7FA
:1007A0008BBF2046BDE81040FFF7B2BF01460020D6
:1007B000FFF7C6BF032803D80130C0B2FFF7C0BFA0
:1007C000002301200B60704730B589B0054601A8B1
:1007D000FFF7ECFF044628B10023032420462B60DA
:1007E00009B030BD02A8FFF78BFE9DF81830022B30
:1007F00001D1019BF2E70B4BD3F83025002AF8DA40
:10080000D3F84035DB07E7D5DDE901235343BDF8D5
:100810000C20B3FBF2F39DF80F200132B3FBF2F38F
:10082000DCE700BF00102640F0B589B00E46054653
:1008300001A9FFF7BFFF044620B100233360204623
:1008400009B0F0BD012D05F1010002A93AD9FFF769
:1008500085FE044690B1424B424A03F1180011460E
:1008600053F8044B834242F8044BF9D100203E4B2D
:1008700040F66312C8751A6000F006FF3B4B05F2A4
:100880007E51AA1E53F82110814201DB019BD5E75E
:100890009DF815100229F9D0012A10D805F28E55BD
:1008A00053F8253003F001034BB1DDE90123534335
:1008B000039AB3FBF2F3049AB3FBF2F3BEE72346C9
:1008C0000324BBE7FFF768FE044680B1244B254AAA
:1008D00003F11800114653F8044B834242F8044BCD
:1008E000F9D10020204B40F67F12C875C3E705F50B
:1008F000C8721E4B12019A58824202DB0199316084
:100900009DE79DF81420022AF8D003EB051303F5A8
:10091000C85308335B6803F00103F3B19DF8151069
:10092000DDE90150DDE9032389B1010A069F0006D4
:10093000A2FB0323C01941F10001A0FB050705FB41
:1009400001710AF059F8000E40EA0121D7E745434A
:10095000B5FBF2F5B5FBF3F1D1E701460324CEE791
:10096000F8C00810C4140228C01402280000264051
:1009700010B90846FFF728BF431EDBB2032B02D88D
:100980001846FFF751BFFFF7DBBE0000072873B51D
:100990000C4612D91E4B1F4A03F11800114653F89A
:1009A000044B834242F8044BF9D100201A4B40F625
:1009B0005B02C8751A6000F067FE184E00F592657C
:1009C00056F82530DB0505D4084602B0BDE8704076
:1009D000FFF730BE56F8250001A900F00F00FFF721
:1009E000C7FF18B10023236002B070BD56F8252060
:1009F000019BC2F30112022A05D0032A05D0012A65
:100A000008BF5B08EFE79B08EDE7DB08EBE700BFFB
:100A10002EC10810C4140228C01402280000264069
:100A200037B5054601A90120FFF7B0FF0446B8B964
:100A30000C4B01999A6898686301C2F30722C0F3CE
:100A4000C4000132520112184FEA41104FEAD1613D
:100A500043F1000309F0D0FF2860204603B030BD09
:100A60000020F9E70000204037B5054601A9012024
:100A7000FFF78CFF0446C8B90D4B0199D3F8082441
:100A8000D3F808046301C2F30722C0F3C4000132A3
:100A9000520112184FEA41104FEAD16143F10003AD
:100AA00009F0AAFF2860204603B030BD0020F9E716
:100AB00000002040084A1368C3F303230E2B01D122
:100AC000FFF7AEBF1368C3F303230D2B01D1FFF76C
:100AD000CBBF0120704700BF00002040094B1B68BE
:100AE0009B0407D400F16C40B0F5802F34BF002088
:100AF00001207047044B0340B3F1A05018BF012000
:100B0000704700BF000024400000FEFE0A4B1B6837
:100B10009A0409D400F16B4000F57D00B0F5803FE8
:100B20002CBF002001207047044B034004481B1ACF
:100B300058425841704700BF000024400080FFFE2B
:100B400000800114094B1B68DB0407D400F17040DE
:100B5000B0F5820F34BF00200120704720F00070F4
:100B600000F17040B0F5021FF4E700BF0000244020
:100B700008B50246FFF7B2FF20B11046BDE80840B5
:100B8000FFF7E0BF08BD000010B500F00FFD024602
:100B900090B16FF0704398420BD03E4B984273D0A7
:100BA0000133984230DA883B984226DAB0F1704F30
:100BB00003DC394800E0394810BD00F18052013AA9
:100BC000092AF6D801A353F822F000BFF50B08104C
:100BD000B30B0810910C0810690C08106D0C08106C
:100BE000710C0810B30B0810B30B0810B30B0810EE
:100BF000750C08104FF4A400DEE7294C264B294859
:100C0000A24218BF1846D7E7274B984228DA0F3B75
:100C10009842CEDB02F18052A43A0E2AC9D801A331
:100C200053F822F08D0C0810B70B0810790C08103F
:100C3000B30B08107D0C0810B30B0810810C0810C2
:100C4000B30B0810B30B0810B30B0810B30B08104C
:100C5000B30B0810B30B0810B30B0810850C081069
:100C6000124C0D4B1248CBE71248A5E71248A3E7F8
:100C70001248A1E712489FE712489DE712489BE7F8
:100C8000124899E7124897E7124895E7124893E708
:100C9000124891E7920000F0FF0052000900520054
:100CA000910000F006005200B30000F0BB0000F01D
:100CB0000E005200020052000300520004005200D5
:100CC000050052000A0052000B0052000C005200B6
:100CD0000D005200070052000800520001005200AF
:100CE00001291FB5044622D11022002168460AF0CE
:100CF0007AF86946204600F0CDFB012811D0022881
:100D000011D0042811D00098FFF73EFF38B90B4BE3
:100D10009A6842F001029A609A68D207FCD404B043
:100D200010BD0748FBE70748F9E70748F7E700F079
:100D30005BFB0028024808BF0020F0E700002440C9
:100D40000400520010005200FF00520030B515465A
:100D500085B011B9154805B030BD0C682046FFF7C5
:100D600007FF0128F6D048680028F3D000238A7ACC
:100D70000093CDF8033006238DF803300B7A8DF8FD
:100D800001304B7A8DF802304B89ADF804300B7B83
:100D90008DF80730064B33F81210CDE9024000F011
:100DA000E3FC29466846FFF79BFFD4E70F0052009B
:100DB000BCC708107FB50D46164611B90F4804B0E0
:100DC00070BD0C682046FFF7D3FE0128F6D014F062
:100DD0000301F3D1102268460AF005F814233146C6
:100DE00068468DF803302B7901948DF801306B79CA
:100DF0008DF80230FFF774FFE1E700BF0F005200EB
:100E000070B5164688B011B9214808B070BD4C685D
:100E1000002CF9D00D682846FFF760FE0128F3D0BA
:100E200005EB84000138FFF759FE0128ECD01022B1
:100E300000216846013C09F0D6FF2A23012E0195C6
:100E40008DF80330ADF8084019D1102200210DEBC8
:100E5000020009F0C8FF04A9684600F01BFB012846
:100E600007D0022807D0042807D00498FFF78CFE8B
:100E7000CBE70848C9E70848C7E70848C5E7684618
:100E800000F0B2FA0028034808BF0020BDE700BF09
:100E90000F0052000400520010005200FF005200E8
:100EA000F0B500287CD0002A7AD0012413688C4049
:100EB000002B67D1446000F13F43157A03294FF0BE
:100EC0001F0703F54F0305F01F0E4FEAD31303F17D
:100ED000806303F540334FEA031355D84FEAC10C42
:100EE0001E6807FA0CF70EFA0CFC26EA070646EA1B
:100EF0000C061E6053694E00856C032703F0010346
:100F000006F1100C25EA04058B402B43836493699A
:100F1000C56C03F0010325EA04058B402B4307FA57
:100F20000CF5C364C36C23EA0503D5693D40B740A3
:100F300005FA0CF54FEA810C2B430F25C36405FA23
:100F40000CF5436C23EA0503556805F00F0505FA17
:100F50000CF52B434364D568036C05F0030523EAC5
:100F60000703B5402B430364436944614369136934
:100F7000856903F0010325EA04058B402B43836157
:100F80000020F0BD846096E70E1F5D68F6B2F600A3
:100F9000B74025EA07070EFA06F53D435D60A9E76D
:100FA0000048EEE701005A0010B50468002C07DA8B
:100FB000C2600361002361F30F038360002010BD52
:100FC0000048FCE701008A004FF0000CF0B56446D1
:100FD0006546002800F0BE80002900F0BB804F6805
:100FE000002F40F0AE808F68D1E90436B34238BF9D
:100FF0003346082B05D9102B00F2A880012363F398
:101000008F3C0B7B91F82160013B03F00F0343F011
:10101000807343EA0623504E1E40504B0CEA0303F4
:1010200046EA030CC0F800C04E6891F81CC0F308F3
:101030008CF0010C360603F0020306F0407643EA1A
:101040000C034FEA470CFF000CF0040C07F00807F4
:1010500043EA0C033B43CF7E43EA07134F7E43EA48
:1010600047134F7F43EA07238F7F43EA4723CF7F0E
:1010700043EA872391F8207043EAC72333430E687D
:10108000771E7E427E4143EAC673002623F0F94371
:1010900023F4FF0323F4E14323F0400303620B7CBA
:1010A0000F7E013B03F01F0343EA07238F7E43EAD1
:1010B000472323F0E0039B059B0D63F30F05C0F866
:1010C000005391F82450D0F8043365F30703C0F8B7
:1010D00004330B7D0D7E013B03F01F0343EA052320
:1010E00023F0E003DB05DB0D63F30F04C0F80042DF
:1010F00091F82C40D0F8043264F30703C0F80432AE
:101100000B6BC0F8883F8B6AC0F8C83F91F8384035
:10111000D0F8003F64F34923C0F8003F91F839103C
:10112000D0F8403F61F3CB23C0F8403FC0F8C86E11
:101130002AB10B4B1660D66196611362D66000200F
:10114000F0BD023F18BF01277F004DE7202B01D8DB
:10115000022354E70348F3E70F010001F0FEFFFC10
:10116000EFCDAB000140AA002DE9F0434FF000089D
:10117000C6464546C446474644464646002800F013
:10118000E480002900F0E1800B68022B04D191F883
:101190002630002B00F0D7804B68013B03F00F0393
:1011A00091F8249043F0007343EA0943DFF8AC91CF
:1011B00003EA0909C0F800900B6863F31968C0F8E6
:1011C0004080D1F814800B7C4FEA0819013B4FEAAC
:1011D000081809F0100903F0070308F0200843EA93
:1011E000090343EA080391F8258043EA881391F83C
:1011F000198043EA082391F81A8043EA482391F8BA
:101200001B8043EA882391F8388008F1FF3808F002
:101210000F0843EA084323F07F4323F4700323F4C9
:10122000784323F0880383640B7A91F80C80013BA8
:1012300003F01F0343EA082391F8188043EA482388
:1012400023F0E0039B059B0D63F30F0EC0F800E352
:10125000CB6963F307050B6A63F31745C0F81053B6
:101260000B7C4D69013B05F0010EC5F3400503F011
:10127000070343EA0E1343EA451391F8275043EA64
:10128000052323F0C803DB05DB0D63F30F0CC0F867
:1012900044C00B7A0D7B013B03F01F0343EA052397
:1012A0000D6805F1FF3CDCF1000545EB0C0543EA58
:1012B000054323F07F4323F47E0323F47E4323F08E
:1012C000E003C0F80032CB6B63F30707C0F8047388
:1012D000CB6A03F1FF384B6BD8F1000503F1FF39FE
:1012E00045EB0805D9F1000343EB090343EA052365
:1012F00091F8285043EA4523154D23F0FE0305EAF3
:1013000014459B059B0D2B4363F31F440B6B63F349
:10131000070404654B6C63F30706C0F804628B6C2A
:10132000C0F8883F0B6CC0F8C83F002342B153603F
:10133000936013601363D3601362D362054B5363EE
:101340000020BDE8F083434628E70348F9E700BFE3
:10135000FEFCFFFFEFCDAB000160AA000F00010211
:10136000104B40F2071203604FF440130364002354
:101370008364C0F80023C0F80433C0F8103343641A
:10138000C0F80022C0F804320365C0F8C83EC0F8B7
:10139000883EC0F8C83FC0F8883FC0F8083FC0F892
:1013A000483F70470F00000338B50C4C0C4BE56C00
:1013B0001A6812F4706F0FD01B68C3F303230E2B4F
:1013C00014BF042302232B4203D0064B1B6803B136
:1013D00098472564236C38BD0123F4E700102240B0
:1013E0000000204034140228F8B570B3184B1A6876
:1013F00012F4706F27D01B68164CC3F30323164AF0
:101400000E2B08BF1446154A034600F11007164676
:101410001868083353F8041C1546BB4203C52A4616
:10142000F6D1336810210D4823F00103336000F03A
:101430009BF90B4B0121094A2046FFF7B5FD003807
:1014400018BF0120F8BD074CDDE70520FAE700BF13
:10145000000020404000224020002240401402288A
:10146000301402280000224010B5094C10212046FB
:1014700000F064F9236803F07043B3F1204F05D006
:10148000B3F1704F14BF0220012010BD0020FCE713
:1014900040140228F8B50D46002852D02C4B1A688B
:1014A00012F4706F47D01B682A4CC3F303232A4AF7
:1014B0000E2B08BF1446294A034600F1100C1746AC
:1014C0001868083353F8041C1646634503C63246B1
:1014D000F6D13B681021214823F001033B6000F066
:1014E00043F91F4B01211D4A2046FFF75DFD50BB0C
:1014F0006FF07043E269002A1FDB8DB1174C102199
:10150000164800F01BF92A4604F11005234608325C
:1015100003CBAB4242F8080C42F8041C1C46F5D140
:10152000FFF7A2FF012810D0FFF79EFF003818BF79
:1015300001208000F8BD0B4CBDE7013BDAD1022051
:10154000F8E70520F6E70120F4E70320F2E700BF03
:101550000000204040002240200022404014022889
:10156000301402280000224070B50446FFF77CFFCB
:101570000228034612D06CB10B4D224605F110062D
:101580002C46083203CCB44242F8080C42F8041C42
:101590002546F5D12BB1044B186870BD6FF0704033
:1015A000FBE71846F9E700BF4014022800F070433B
:1015B000B3F1204F05D0B3F1704F18BF6FF07040FA
:1015C0007047002070470000022313B5ADF80030CB
:1015D0000124104BADF80210186068468DF80440E5
:1015E00000F020F80C49BDF8000000F045F80B4B66
:1015F0001A6812F4706F06D01B68C3F303230E2B16
:1016000014BF042402240023054A64F30F039364E7
:1016100002B010BD34140228A913081000002040A5
:101620000010224008B3124A1368C3F303230E2BA1
:101630000CD14388017903F00F0343EAC173018899
:1016400001F5205142F82130002070471368C3F3A0
:1016500003230D2BF8D14388017903F00F0343EAEC
:10166000C173018801F54051ECE70248704700BFA3
:101670000000204001005600024B1B680BB143F8EC
:10168000201070470008022801BEFEE708B5234B72
:10169000234A196891423ED01A60224A926A5A62DD
:1016A000214A9A6202685A6042689A608268DA60E7
:1016B000C2681A6102695A6142699A618269DA6193
:1016C000C2691A62F1EE102A12F0900F23D0174A65
:1016D0009A62026ADA62426A1A63826A5A63C26A68
:1016E0009A63026BDA63426B1A64826B5A64C26B50
:1016F0009A64026CDA64426C1A65826C5A65C26C38
:101700009A65026DDA65426D1A66826D5A66C26D1F
:101710009A66026EDA66FFF7B8FF08BD5014022819
:10172000FAF9F8F700ED00E0A4A3A2A1ABAAA9A8DA
:10173000836913F8023C036070470000002910DD44
:1017400000F01F030B44BFF34F8F06490344C1F859
:101750005C0220301A1A002AF9DCBFF34F8FBFF366
:101760006F8F704700ED00E0002910DD00F01F03CF
:101770000B44BFF34F8F06490344C1F86802203081
:101780001A1A002AF9DCBFF34F8FBFF36F8F70472F
:1017900000ED00E0036C43F01003036470470000A9
:1017A00091F84C30042B10B500F28B8091F84D303D
:1017B000042B00F28680002800F0838091F824201A
:1017C0000B7D43EA42038A7902F0030243EA0243B3
:1017D0004A7902F0010243EA82430A7A02F00702E0
:1017E00043EA0263CA7943EA8273374A1A400260C5
:1017F0000A79036B62F3070303634B79012B5ED114
:101800008B79002B57D18360CB68002403610B696F
:101810004361CB6983610B6AC3610B680362002378
:101820008A6962F307030A6B62F317430A6C62F377
:101830001F638A6C62F30F23436400238A6B62F395
:1018400007038A6A62F30F23836491F844208B7D37
:1018500002F0030203F0030343EA820391F82C2011
:1018600002F0030243EA021391F83C2002F0030263
:1018700043EA821391F8342002F0030243EA022380
:1018800091F8252002F0030243EA822363F30F0458
:10189000C464002491F84D3091F84C201B0102F0F3
:1018A000070203F07003134363F3070444654B7DA1
:1018B0008367002010BD012BA6D10B68A3E701238D
:1018C000A1E70120F6E700BF03000747036843F0E4
:1018D0000043036070478160704780687047836F82
:1018E00043F0010383677047036F43F0010303670D
:1018F000036F704710B5002800F0BB80002900F08E
:10190000B88091F8344091F8283091F8402043EAAB
:1019100044030C7F43EA84034C7F43EAC40391F8F9
:10192000704043EA0423C2F3400402F0010243EA98
:10193000442343EA822391F8712002F0030243EA30
:101940000233CA68120402F4403213430A7A43EAAB
:1019500082430A7802F0070243EA02638A7843EA84
:101960008273454A1A4002600B7A002B7FD1836054
:1019700000240B6A03614B6A4361CB6A83610B6B82
:10198000C3614B6903628B69436200234A6C62F353
:101990000703CA6C62F31743CA6D62F31F63CA6E12
:1019A00062F30F23436400234A6E62F30F234A6DF0
:1019B00062F30703836491F8682091F8413002F0E4
:1019C000030203F0030343EA820391F8482002F084
:1019D000030243EA021391F8582002F0030243EA9B
:1019E000821391F8502002F0030243EA022391F897
:1019F000602002F0030243EA822363F30F04C4640D
:101A0000002491F8733091F872201B0102F0070254
:101A100003F07003134363F307044465002491F853
:101A2000353083674B7C0A7C9B0002F0030203F095
:101A30000C0313438A7C120102F030021343CA7C68
:101A400043EA8213002263F307040465CB8863F33F
:101A50001F428B881C0A64F30F220C78052C14BFDC
:101A60004B78DBB263F307020263002010BD4B69C1
:101A70007DE70120FAE700BF0F370747036843F00F
:101A800000430360704700001FB56846FFF76CFD18
:101A900088B10F4B0F4A03F11800114653F8044B5D
:101AA000834242F8044BF9D100200B4B4922C87500
:101AB0001A60FFF7E9FD094B01221A70084B9A687A
:101AC00042F001029A609A68D207FCD404B010BDBB
:101AD00064C10810C4140228C0140228DD140228AE
:101AE0000000244010B5044648B103210D48FFF71B
:101AF0006BFD0D4B602283F8032308221A600B4B09
:101B00001C700B4BD3F8002442F00102C3F80024F0
:101B1000D3F8002542F00102C3F800250122054B4D
:101B20001A7010BD891A081000E100E0DC140228C8
:101B300000F02440DD14022800230A4613B5CDE945
:101B40000033B1B9184B1B788BB9184B184A03F105
:101B50001800114653F8044B834242F8044BF9D164
:101B60000020144B9422C8751A60FFF78DFD124BAC
:101B7000197001230090694600208DF80430FFF7AA
:101B800019F978B1094B0A4A03F11800114653F8C4
:101B9000044B834242F8044BF9D10020054B9E22AE
:101BA000C875E1E702B010BDDC14022864C108105A
:101BB000C4140228C0140228DD14022837B50546D3
:101BC0000C46FEF78BFF88B11D4B1E4A03F118002F
:101BD000114653F8044B834242F8044BF9D10020DC
:101BE000194BB522C8751A60FFF74EFDA4B9174B03
:101BF0001B787BB9124B134A03F11800114653F8B6
:101C0000044B834242F8044BF9D100200E4BB92219
:101C1000C875E8E70E4B1C7028460095FEF776FF66
:101C20000028224669460CBF4FF400732023002091
:101C30000193FFF7E5F8B0FA80F0400903B030BD3A
:101C400064C10810C4140228C0140228DC1402283D
:101C5000DD1402287FB50D4606461446FEF73EFF0A
:101C6000014688B1234B244A03F11800114653F86A
:101C7000044B834242F8044BF9D100201F4BDF2272
:101C8000C8751A60FFF700FD1022684609F0ABF82E
:101C9000A4B91B4B1B787BB9164B174A03F11800EC
:101CA000114653F8044B834242F8044BF9D100200B
:101CB000124BE622C875E4E7124B1C70124B224609
:101CC000694600200293CDE90065FFF73FF878B13F
:101CD000084B094A03F11800114653F8044B83429C
:101CE00042F8044BF9D10020044BF522C875C8E72F
:101CF00004B070BD64C10810C4140228C0140228C6
:101D0000DC140228DD1402280101020108B5054B8C
:101D10001860FEF7BFFA00F0DBFD0020BDE80840C8
:101D200000F03CBDE01402282DE9F04FDBB0A34FDA
:101D3000824608460DF1240B07AE0DF11E040DF18D
:101D400020080DF122090D46CDE90332002333802E
:101D50002380CBF80030A8F80030A9F8003009F053
:101D600091F83B88CBF800000BB13B699847944B46
:101D70001B78002B00F083803988002900F0018156
:101D8000B9F800100020FB6889B24A1CA9F80020AD
:101D900052469847284609F075F87B88BA79CBF8FF
:101DA0000000B3FBF2F3A8F8003015F8013B002B5C
:101DB000FBD1238023889BB2012B06D9DBF80030AE
:101DC000002B15DB6A1C7F4918E0DBF80030002B84
:101DD000F4DB15F8013D2F2B01D05C2B02D12388B9
:101DE00001332380DBF80030013BCBF80030E1E722
:101DF00023882A469BB2002BE5D173491AA80DF11E
:101E0000280B08F0A3FFDFF8B4A100233380338848
:101E10001AAD9BB22846059309F034F8B8F80020B3
:101E2000059B12B2B0FBF2F0013083422AD3049A30
:101E30002846664908F08AFFB9F80020F97992B27D
:101E4000FB6811FB02F1501C2A46A9F8000089B278
:101E500000209847039B93B100250DF1280A358097
:101E6000039809F00FF8B6F800B0B8F800301FFA80
:101E70008BFB1BB2B0FBF3F00130834542D35BB068
:101E8000BDE8F08F002323802288B8F8003092B29A
:101E90001BB29A420DDA284608F0F4FF22883388F4
:101EA000B8F800109BB209B24B4313FA82F3984280
:101EB00017D223880020B9F800209AF807109BB2A7
:101EC00092B20BF8030011FB02F1551CDAF80C304A
:101ED0005A4689B2A9F800509847338801333380B5
:101EE00095E721883388B8F8000015FA81F19BB294
:101EF000228800B292B24343CB5C0BF802302388B5
:101F00000133C0E725802288B8F8003092B21BB2B6
:101F10009A420DDA039808F0B5FF22883388B8F8A2
:101F200000109BB209B24B4313FA82F3984215D2C8
:101F30002388B9F80020F9799BB292B20AF80350CD
:101F4000501CFB6811FB02F15246A9F8000000206A
:101F500089B2984733880133338081E721883388F9
:101F6000B8F800009BB2228800B292B243430398B3
:101F700010FA81F1CB5C0AF8023023880133238008
:101F8000C1E74FF480721AA808F02DFFBB685046D5
:101F90009847039B53B100932A46049B1AA80C4907
:101FA00008F0D4FEBB681AA8984768E7049B2A4645
:101FB00008491AA808F0CAFEF4E700BF4415022831
:101FC0004115022894C108109DC10810AAC108102B
:101FD000B3C10810CCC108100146002001F025BD96
:101FE00008B5074B1B7853B10649002001F028FDC6
:101FF000012204490448BDE8084000F0D7B808BDF4
:102000004115022800150228E814022873B50D4670
:10201000164620BB134B1B780BB3134B1C7804B133
:10202000FEE701221A7000F0CFFB0023324629465A
:102030000E48FFF779FE009401940094009BB3F5DD
:10204000805FF2D20194019BB3F5005F03D3009B44
:1020500001330093F2E7019B01330193F3E702B0F0
:1020600070BD00BFF00E0228E4140228E1C1081080
:1020700010B40C4611461A4638B9054B1B7823B1EB
:102080002346044810BCFFF74FBE10BC704700BF8A
:1020900041150228EEC108104FF0FF33034AC0E992
:1020A00000230023C0E90233036170470000FFFFF3
:1020B00030B5074B02690568D0E9024140681D60F0
:1020C000C3E90312C3E901040122024B1A7030BDB7
:1020D00044150228411502287FB5074A4FF0FF3307
:1020E00001A8CDE901230023CDE90433034B039379
:1020F000FFF7DEFF07B000BD0000FFFFD91F08108B
:1021000008B5FFF7E9FF00234FF4E1311A461846FE
:1021100001F03AFD40230021044A054800F09AF9F5
:1021200001210020BDE8084001F0E4BC01150228AF
:10213000E814022883681944436981608B4200D9FE
:102140007047C91A8160F9E710B5044600384FF0AE
:1021500054020D4918BF0120FFF758FF6378002192
:102160006269012B2261C4E9021108D0022B08D058
:1021700013B9606808F037FE0020207010BD5200CF
:10218000F7E79200F5E700BFFAC1081010B5044662
:1021900000384FF07002044918BF0120FFF736FFE6
:1021A000D4E90430C01A10BDFAC108102DE9F84F67
:1021B000044600380E46154618BF0120AA224A4997
:1021C000FFF724FF002E00F08980237813F0050824
:1021D00040F0878043F0040323702369AB427AD335
:1021E000D4F81490D4F808B06378A9EB0B07BD427B
:1021F00057D9012B24D0022B3CD0BBB960683A469A
:1022000031465844AB4408F02FFE39462046ABEB2C
:102210000902FFF78FFFF119D4E90103184408F010
:1022200023FEABEB09012046FFF784FF23695B1B0C
:102230002361237823F0040323704046BDE8F88F20
:1022400060687A00314600EB4B00AB4408F00CFEAE
:1022500039462046ABEB090BFFF76CFF4FEA4B0208
:1022600006EB4701D4E9013003EB400008F0FCFD28
:102270005946D8E76068BA00314600EB8B00AB44A2
:1022800008F0F2FD39462046ABEB090BFFF752FF91
:102290004FEA8B0206EB8701D4E9013003EB8000A3
:1022A000E4E7012B0BD0022B0FD0002BBED16068CE
:1022B0002A463146584408F0D7FD2946B3E76068FE
:1022C0006A00314600EB4B00F5E76068AA00314632
:1022D00000EB8B00EFE74FF00508AAE74FF003088B
:1022E000ABE74FF00408A8E7FAC108102DE9F84F52
:1022F000044600381746884618BF012040F25B129A
:1023000053499A46FFF782FE381E4FF4AE72504989
:1023100018BF0120FFF77AFEB8F1000F00F08E80A1
:1023200094F8009019F0030906D000234FF0060935
:102330003B604846BDE8F88F2046FFF727FF3B6823
:1023400083420AD9386030B923784FF0070923F067
:1023500008032370EDE74FF007092378D4F814B091
:1023600043F00803E5682370ABEB05063A68637831
:10237000B2422FD8012B23D0022B26D023B961687B
:102380002944404608F070FD237823F008032370A9
:10239000BAF1000FCDD122780B2A55D042F00203BA
:1023A000E16823703B680B446169E360994248D956
:1023B000396822F00202236922700B442361B8E7D6
:1023C0006168520001EB4501DBE76168920001EBB7
:1023D0008501D6E7012B11D0022B1FD0002BD3D1C2
:1023E000616832464046294408F03EFD3A6861681B
:1023F00008EB06002A44A2EB0B02C3E761687200F7
:10240000404601EB450108F02FFD3A68616808EB92
:1024100046002A44A2EB0B025200B3E76168B20007
:10242000404601EB850108F01FFD3B68616808EB41
:102430008600EA18A2EB0B029200A3E74FF0030913
:10244000A6E75B1AE360B1E74FF0020971E700BF4E
:10245000FAC10810F8B5044600380E46174618BFF2
:1024600001204FF4077206491D46FFF7CFFD0020FB
:10247000676020706670C4E90200C4E90455F8BDC5
:10248000FAC1081038B5044600384FF073021049FD
:1024900018BF0120FFF7BAFDC4B123782D2B05D159
:1024A00001340122611E00200A2506E02B2B00D1F9
:1024B00001340022F6E705FB003011F8013F303B04
:1024C000DCB2092CF7D902B1404238BD2046FCE706
:1024D0001FC2081030B50446003885B00D4618BF3D
:1024E00001209F221649FFF791FD34B3002D21DA18
:1024F0002D236D4204F8013B00230A211A460133C3
:1025000095FBF1F001FB10551032DBB2002D6A444F
:10251000B8BF6D4202F8105C05460028EED10DEB05
:10252000030223449C4208D012F8011D303104F804
:10253000011BF7E7E0D13023237005B030BD00BFA9
:102540001FC208100000000010B5044600384FF408
:10255000D2722B4918BF0120FFF758FD002C45D03F
:1025600023782D2B06D101340122B2EE046B9FEDAE
:10257000220B0DE02B2B00D101340022F5E707EEF2
:10258000903A0134B8EEE77B00EE067BB0EE470BE5
:102590002178A1F13003D8B20928F0D92E2922D10F
:1025A000B7EE005B04F10A01B2EE044B9FED126B33
:1025B00014F8013F303BD8B2092807D986EE057BD5
:1025C00030EE070B0AB1B1EE400B10BD8C42F5D0D6
:1025D00007EE903A25EE045BB8EEE77B06EE047B4F
:1025E000B0EE476BE4E79FED047BE9E79FED020B5C
:1025F000EBE700BFAFF30080000000000000000028
:102600001FC20810F0B5044600380D464FF4F172B1
:1026100018BF01203D492DED028B97B0B0EE408BE5
:10262000FFF7F4FC002C3FD0B5EEC08BF1EE10FAB2
:1026300030D52D2304F8013BFDEEC87B2A4617EE6A
:10264000903AB8EEE77B38EE478BB2EE047B7ABB6C
:102650000A26114616A8013200EB8101D2B293FB83
:10266000F6F006FB103341F8303C03460028F0D169
:102670000AA8A618214600EB8200B1421DD19DB1E7
:10268000FDEEC87B2E20A05417EE903AF3B930230C
:102690004B7009E0B5EE408BF1EE10FACCD130234F
:1026A0002E2223706270A37017B0BDEC028BF0BDB8
:1026B000013A28EE078BD2B2C9E750F8043D002B4F
:1026C000B8BF5B42303301F8013BD6E701A80131C6
:1026D0002A460A270646013A93FBF7F412F0FF0256
:1026E00007FB143346F8043B2346F4D100EB850581
:1026F00055F8043D0131002BB8BF5B42854203F120
:10270000300301F8013CF3D1CEE700BF1FC208102F
:1027100038B50446003840F23722164918BF012068
:10272000FFF774FC204608F0ADFB00210246084686
:102730002378B9B1A3F16105052D08D8573BDBB269
:1027400043EA0010013A04F10104F1D209E0A3F1D7
:102750004105052D01D8373BF1E7303BDBB2092BB2
:10276000EED938BD302BEDD16378782B04BF01341E
:102770000121E7E71FC2081000284FEA411106DBDC
:1027800000F1604000F5614080F80013704700F0F0
:102790000F00014B1954704714ED00E000B962B608
:1027A000024A136801331360704700BF58150228AE
:1027B00072B6044B1A6812B11A68013A1A601868A6
:1027C000704700BF5815022808B5FFF7F1FFBDE8B4
:1027D000084000F09DBB000070B504460E4615464B
:1027E000FEF720FF31462088FEF746FF2946B4F960
:1027F0000200FFF7C1FFB4F90230002B09DB5A09D0
:10280000012103F01F03994002F16003084A42F8D6
:102810002310B4F90230002B08DB0122590903F020
:102820001F0302FA03F3024A42F8213070BD00BFD1
:1028300000E100E04109104B104A10B552F8212088
:102840001B5C00F01F00C3F1020302EB80115B0070
:10285000D1F83C48DBB244F00104C1F83C48D2F85E
:1028600000120029FBDB02EB8012D2F8240880B2B0
:10287000184180B210BD00BF5C150228E8CF0810D7
:1028800038B54FF4FA534CF25035002103FB00F4F5
:102890000E48FFF720F8AC4205D80C48FFF71DF8AA
:1028A000A042FAD938BD0948FFF717F8A842FAD96B
:1028B0000648A4F54344FFF710F8A0F54341034848
:1028C000503C5039FFF707F8E5E700BF00035940D7
:1028D00000B595B050220021684608F084FA1C4BE0
:1028E0005B79DBB11B4B0920D3F8DC2D22F47F711F
:1028F00021F0030141F4807161F30F02C3F8DC2D74
:10290000154AD2F8001460F31721C2F800141349D5
:102910001A681140124A0A431A601B684FF0FF33CD
:1029200069461048009303238DF844300123129325
:102930008DF80730FEF734FF0A48FEF7C7FF002185
:102940000848FEF7C8FF0748FEF724FF15B000BD92
:10295000B4C70810002004400030044000FC007C94
:102960000001FF830003594010B50C4636220B4985
:102970005F2C8CBF00200120FFF748FB084B37225B
:1029800006491878FFF742FB04F520300121C00208
:10299000FFF714F980F00100C0B210BD48C2081062
:1029A000A415022810B50C4646220A495F2C8CBF9C
:1029B00000200120FFF72AFB074B06494722187821
:1029C000FFF724FB04F520300121C002BDE81040D0
:1029D000FFF7B2B848C20810A4150228F8B50C4693
:1029E0001E46054619495F2C17464FF074028CBFEE
:1029F00000200120FFF70AFBB6F5007F4FF07502BB
:102A000012498CBF00200120FFF700FB104B0F493B
:102A100076221878FFF7FAFA21462846FFF7A4FF36
:102A200018B121462846FFF7BDFF04F520340025E4
:102A3000E402B54200D1F8BD07EB85012046012232
:102A400004340135FFF706F9F3E700BF48C2081068
:102A5000A415022838B50C4615461B4992225F2C56
:102A60008CBF00200120FFF7D1FAB5F5007F4FF0B1
:102A7000930215498CBF00200120FFF7C7FA134BC2
:102A8000114994221878AD00FFF7C0FAE102002D39
:102A900001F1A0510D440DDD0B46BFF34F8F0C48E3
:102AA000C0F85C322033EA1A002AF9DCBFF34F8FFA
:102AB000BFF36F8F074BA94200D138BD51F8042BEB
:102AC00043F8042BF7E700BF48C20810A4150228FA
:102AD00000ED00E0A815022838B50C46154610494F
:102AE000AB225F2C8CBF00200120FFF78FFAB5F5D9
:102AF000007F4FF0AC020A498CBF00200120FFF795
:102B000085FA084BAD2206491878FFF77FFA2B4665
:102B1000054A21460020FFF761FF002038BD00BFB5
:102B200048C20810A4150228A81502284FF4007204
:102B3000FF21014808F057B9A815022808B5002060
:102B4000FEF7D0FF014B01221A7008BDA415022820
:102B5000C308012200F00700DB01824003F180433B
:102B600003F5441309B19A6070475A607047C3086F
:102B700000F00700DB0103F1804303F544131B69F8
:102B800023FA00F000F00100704770B504468EB0E3
:102B90001646E1B98B4214BF08250F2534220021C7
:102BA00001A808F020F9C02C02950AD0E00801AA7B
:102BB00004F00701C00100F1804000F54410FEF769
:102BC0006FF931462046FFF7C3FF0EB070BD042BEE
:102BD00014BF0E250F25E1E702280AD0054B5B79CB
:102BE0003BB1054B05491A681140054A0A431A6072
:102BF0001B687047B4C708100020044000FC007C2C
:102C00000001FF83030A022B14D00B4B5B798BB1BD
:102C1000C0B2800000F1804000F58420D0F8003C74
:102C200023F47F7222F0030242F4807262F30F03F6
:102C3000C0F8003C704700BFB4C70810022893BF1B
:102C4000C001C301044800F180408CBF181800F592
:102C5000B200FEF749BE00BF807E5840F0B597B085
:102C600004465022CD0002A8002108F0BCF8022C36
:102C70004A4E43D804F27110FFF7C4FF484B5B790A
:102C80003BB1484B0921D3F8002461F31722C3F864
:102C900000240120FFF7A0FF04F5D57356F8241097
:102CA000E401ADF80030022304F18044074603221A
:102CB0008DF8040004F5B2046846ADF80230FFF761
:102CC0008BFD0023032202A92046ADF80C308DF8BD
:102CD0000E308DF810308DF84C20ADF85430029540
:102CE0001497FEF75DFD2046FEF7F0FD2046FEF747
:102CF00051FD2046FEF7F3FD17B0F0BD04F5B171AC
:102D00000846FFF77FFF080A02280AD0244B5B79A8
:102D10003BB1244B0921D3F8002461F31722C3F8F7
:102D20000024FFF759FF04F29B13032256F82410E6
:102D3000ADF8003002236846ADF8023001238DF86B
:102D40000430FFF749FD08230022B5F5803F24BF7A
:102D500001326D08013BF8D18DF80C200322029559
:102D600002A9114D8DF84C20012205EBC4108DF8FD
:102D70000D308DF80E308DF810301492ADF85430BF
:102D8000FEF70EFD05EBC410FEF7A0FD05EBC41029
:102D9000FEF700FD05EBC410ACE700BFF40E0228FF
:102DA000B4C7081000300440807E584008B55D2844
:102DB00000F29F80DFE800F0A3A3A7A72F313133F3
:102DC00033353537393B3D3F3F4141434345474923
:102DD0004B4B4D4D4F515355555759595B5D5F5FA7
:102DE0005F61616163636365656767696BA5A56D15
:102DF0006D6F71717373757577797B7D7F7F81815D
:102E00008383858789898B8B8D8F919393959597F4
:102E1000979799999B9B022008BD0320FCE704200B
:102E2000FAE70520F8E70620F6E70720F4E709208F
:102E3000F2E70A20F0E70B20EEE70C20ECE70D208C
:102E4000EAE70E20E8E70F20E6E71020E4E711208C
:102E5000E2E71220E0E71320DEE71420DCE715208C
:102E6000DAE71620D8E71820D6E71920D4E71A2089
:102E7000D2E71B20D0E71C20CEE71D20CCE71E2088
:102E8000CAE71F20C8E72020C6E72120C4E7222088
:102E9000C2E72520C0E72620BEE72720BCE7282080
:102EA000BAE72920B8E72A20B6E72C20B4E72D207E
:102EB000B2E72E20B0E72F20AEE73020ACE731207C
:102EC000AAE73220A8E73320A6E73420A4E735207C
:102ED000A2E73620A0E737209EE738209CE739207C
:102EE0009AE73A2098E73B2096E73C2094E73D207C
:102EF00092E740F27B1205490020FFF787F8002097
:102F00008AE7242088E7012086E700BF6EC2081008
:102F10000022D301013203F180433F2A03F5B003BD
:102F2000196821F000411960F3D17047F8B50F4DD1
:102F30000F460646FFF73AFF05EBC010046A30461D
:102F4000FFF734FF42F21073A4B205EBC0107C43CC
:102F5000B4FBF3F4A4B244613046FFF727FF05EB5E
:102F6000C0152B6C43F001032B64F8BD00005840E2
:102F70002DE9F0410027AAB004460D461646394611
:102F80003422684607F02FFF742239460DA807F057
:102F90002AFF0E23342C019300F0BA8040F2BE8049
:102FA000A4F13503282B40F2B9804FF486726349AF
:102FB0003846FFF72BF89D22604938468DF8087097
:102FC000FFF724F84FEAD7085D2C4FEAC81808F13C
:102FD000804808F5441804D99D2258490020FFF77D
:102FE00015F807F007016A464046FDF759FF2046ED
:102FF000FFF7DCFE524B5F799FB100F59373DBB2B4
:103000009B0003F1804303F58423D3F8002C22F4C2
:103010007F7121F0030141F4807161F30F02C3F865
:10302000002C2046FFF7C2FE002F79D0454B092126
:103030000027D3F8002461F31722C3F800242046A8
:10304000FFF7B4FE3FB9404B40491A681140404A6F
:103050000A431A601B683F4A2904B2FBF1F0B2FB35
:10306000F5F301FB10221B0C02B10133012B59D9DE
:10307000022B59D0042B59D9082B59D9102B59D9C7
:10308000202B59D9412B34BF0622072204238DF867
:10309000352020468DF834302F4B119300238DF8C6
:1030A0003C302C4BD340B3FBF5F35A1E73431292C2
:1030B00042F21072B3FBF2F3159302238DF87430D1
:1030C00003238DF89C30012328938DF85C30FFF7A3
:1030D0006DFEC0010DA900F1804000F5B000FEF7C3
:1030E00009FC2046FFF762FEC00100F1804000F5B8
:1030F000B000FEF7C3FC2046FFF758FEC00100F108
:10310000804000F5B000FEF745FB2AB0BDE8F08135
:1031100016238DF80830114B1F5D53E70823F8E79D
:1031200001278CE70022B1E70122AFE70222ADE7D9
:103130000322ABE70422A9E70522A7E76EC2081025
:10314000B4C70810003004400020044000FC007C9C
:103150000001FF8300127A0001000303F4CF08107E
:10316000214B082953F820100A6822F440420A60D3
:103170001AD153F82030D3F8002222F01F02C3F8EE
:103180000022D3F8002242F00702C3F80022D3F84D
:10319000002322F01F02C3F80023D3F8002342F0DB
:1031A0000702C3F80023704753F820100A6842F45E
:1031B00080420A6053F82030D3F8002222F01F0228
:1031C000C3F80022D3F8002242F00F02C3F8002215
:1031D000D3F8002322F01F02C3F80023D3F8002302
:1031E00042F00F02DDE700BF300F022838B51D4D59
:1031F0000C460821FFF7B4FF2B5C082B09D0D90837
:10320000194A03F0070302EBC112012101FA03F38B
:103210001360164B53F82030C3F840421A6812F47A
:10322000404FD3F8082214BF40218021C2F3080286
:103230008A42F3D0D3F80822D3F80812C2F3080266
:10324000C1F3C031CA42F5D12B5C082B09D0D90893
:10325000074A03F0070302EBC112012101FA03F34D
:10326000136038BDA81D022804003140300F022829
:103270000800314038B51D4D0C461021FFF770FF96
:103280002B5C082B09D0D908194A03F0070302EB7D
:10329000C112012101FA03F31360164B53F82030D9
:1032A000C3F840421A6812F4404FD3F8082214BF02
:1032B00040218021C2F308028A42F3D0D3F80822C9
:1032C000D3F80812C2F30802C1F3C031CA42F5D1E3
:1032D0002B5C082B09D0D908074A03F0070302EB3F
:1032E000C112012101FA03F3136038BDA81D0228A1
:1032F00004003140300F02280800314070B5204EE4
:103300000D4610211446FFF72BFF335C082B09D024
:10331000D9081C4A03F0070302EBC112012101FA8C
:1033200003F31360184B53F8203035F8022BC3F821
:1033300040221A6812F4404FD3F8082214BF4021EB
:103340008021C2F308028A42F3D0013CEDD1D3F8C8
:103350000822D3F80812C2F30802C1F3C031CA42EE
:10336000F5D1335C082B09D0D908084A03F00703CC
:1033700002EBC112012101FA03F3136070BD00BF1B
:10338000A81D022804003140300F022808003140F7
:1033900070B5254D0E4608211446FFF7E1FE2B5C63
:1033A000082B09D0D908214A03F0070302EBC11208
:1033B000012101FA03F313601D4B53F82030C3F8C9
:1033C00040621A6812F4404FD3F8082214BF40211B
:1033D0008021C2F308028A42F3D0C3F840421A683F
:1033E00012F4404FD3F8082214BF40218021C2F3C9
:1033F00008028A42F3D0D3F80822D3F80812C2F3A5
:103400000802C1F3C031CA42F5D12B5C082B09D0A8
:10341000D908084A03F0070302EBC112012101FA9F
:1034200003F3136070BD00BFA81D022804003140E3
:10343000300F02280800314070B5314D0E4608218A
:103440000446FFF78DFE2B5C082B09D0D9082D4AC6
:1034500003F0070302EBC112012101FA03F3136029
:10346000294B53F82430D3F80823C2F308026AB179
:10347000D3F8042342F48032C3F80423D3F804239E
:1034800022F48032C3F80423D3F80423C3F8406243
:10349000D3F80823C2F30802002AF9D0D3F8042392
:1034A00042F48032C3F80423D3F8042322F4803298
:1034B000C3F80423D3F804230022C3F84022D3F82E
:1034C0000822D3F80812C2F30802C1F3C031CA427D
:1034D000F5D1D3F80823C2F30802002AF9D0D3F8B3
:1034E00040032B5DC0B2082B09D0D908074A03F06E
:1034F000070302EBC112012101FA03F3136070BD4F
:10350000A81D022804003140300F02280800314075
:103510002DE9F041354F8846082115461E46FFF734
:103520001FFE3A5C082A09D0D108314B02F007028D
:1035300003EBC113012101FA02F21A60DFF8B8C0EF
:103540005CF82040D4F80833C3F308036BB1D4F817
:10355000043343F48033C4F80433D4F8043323F43D
:103560008033C4F80433D4F80433C4F84082D4F868
:103570000833C3F30803002BF9D0D4F804332E44E6
:1035800043F48033C4F80433D4F8043323F4803391
:10359000C4F80433D4F8043300245CF82020C2F8C3
:1035A0004042D2F80832D2F80812C3F30803C1F33C
:1035B000C031CB42F5D1D2F80833C3F30803002B56
:1035C000F9D0D2F8403305F8013BB542E5D13B5C78
:1035D000082B09D0D908074A03F0070302EBC112F0
:1035E000012101FA03F31360BDE8F081A81D022850
:1035F0000400314008003140300F02280000000074
:103600002DE9F0479CB0984604460E461746002127
:10361000342268469DF890A09DF894909DF89850AB
:1036200007F0E1FB3C2200210DA807F0DCFBA4EB36
:10363000080C4FF470728449DCF1000040EB0C0080
:10364000FEF7E4FCA8EB0A0E7F4940F2C132DEF13E
:10365000000040EB0E00FEF7D9FC0623BAF1030F81
:103660006A46019393BF1323C02100238DF80830CD
:1036700096BF764B8DF8083013F80A10C80801F091
:103680000701C00100F1804000F54410FDF708FC7F
:10369000B8F1030F4FF006036A4688BFC0210193BB
:1036A00097BF132300238DF80830694B8CBF8DF82A
:1036B000083013F80810C80801F00701C00100F134
:1036C000804000F54410FDF7EBFBB9F1040F19D071
:1036D0000823B9F1030F6A464FF00001019393BF2D
:1036E0001323C02000238DF8083096BF594B8DF866
:1036F000083013F80900000100F1804000F5441083
:10370000FDF7CEFB082D18D00623072D6A4601933E
:1037100093BF1323C02100238DF8083096BF4E4B72
:103720008DF80830595DC80801F00701C00100F1AB
:10373000804000F54410FDF7B3FB484A022C04F129
:103740000701D27994BF04F21F134FF48F73914293
:1037500043D2DBB29B0003F1804303F58423D3F80B
:10376000002C42F4407261F30702C3F8002CBA0047
:103770003B4BB3FBF2F000F1FF3CBCF1807F24D265
:1037800002FB103307EE903AB8EEE75B07EE902AA3
:10379000B8EE677B85EE076B9FED297B26EE077BF6
:1037A000FCEEC77B17EE903A1F2B0ED82D4A04F67D
:1037B000077052F820706CF31F2742F8207052F8FF
:1037C000207063F3C70742F82070274A274B106820
:1037D000034361F30703136013680123032E07D823
:1037E000DFE806F00205282A00220F9200E00F937E
:1037F000002608221E4F0421129257F824000D9330
:103800008DF84C308DF84F300E96CDE910123246BF
:103810000DA9FDF7D9FB57F824301A6A66F39B62AD
:103820001A621A6842F000421A60124B1D551CB011
:10383000BDE8F0870222D8E70322D6E7AFF3008085
:10384000000000000000404092C208105ED0081046
:1038500062D008105AD0081052D00810B4C708100F
:1038600000B4C40400000440002004400003FF83AF
:10387000300F0228A81D0228012810B51BD80E4CB5
:1038800004EB8004E478A14215D2B2F1807F12D219
:103890001F2B10D801EBC021084C01F5E06154F852
:1038A000210062F31F2044F8210054F8212063F323
:1038B000C70244F8212010BDB4C70810000004401E
:1038C000012811D8094B03EB8003DB7899420BD216
:1038D0004003074B00F1804000F58020026813434D
:1038E00061F3070303600368704700BFB4C70810A3
:1038F0000003FF83B0F5007F4FEA102315D20B4A77
:1039000002EB8302D27891420FD2DB0253FA80F0AD
:10391000800000F1804000F58020D0F8003C43F4A6
:10392000407361F30703C0F8003C7047B4C7081048
:103930002A4BF0B553F82030D3F80423D2B2002A32
:10394000D3F8C82F0CBF042101210A4039D0012926
:103950002ED1D3F808530024214EEDB2214F06EBAF
:103960000016A54219DD17F800C0D3F840E30CF1AA
:10397000010206F80CE0D2B20F2A3A5416D9D3F855
:10398000042342F48032C3F80423D3F8042322F43E
:103990008032C3F80423D3F80423134A0124C3F864
:1039A000C01FD3F8C03F14540120F0BD0134D8E744
:1039B00002010B4CD3F84053A5540124094A145476
:1039C000EBE7D3F8881F8905EED54FF40071104658
:1039D000C3F8801FD3F8803FE7E700BF400F0228FD
:1039E000BA1D0228B31D0228AC1D0228074B53F84C
:1039F0002000C0F84012D0F80832D0F80822C3F3F3
:103A00000803C2F3C032D342F5D17047400F0228F9
:103A100070B506460C468D18AC4200D170BD14F846
:103A2000011B3046FFF7E2FFF6E738B505464C1EAE
:103A300014F8011F01B938BD2846FFF7D7FFF7E793
:103A400070B50C4E0346305C80B10B4D1C012A5DF5
:103A500005EB03100A700949CA5C013AD2B2CA5494
:103A60002AB10134291907F0A5F9012070BDF254DB
:103A7000FBE700BFAC1D0228BA1D0228B31D0228B7
:103A80001B4B53F82030D3F8882F22F00102C3F8E3
:103A9000882FD3F8882F22F00202C3F8882FD3F89A
:103AA000882F22F02002C3F8882FD3F8882F22F025
:103AB0004002C3F8882FD3F8882F22F01002C3F8F1
:103AC000882FD3F8882F22F48072C3F8882FD3F878
:103AD000882F22F48062C3F8882FD3F8C82F21B131
:103AE00042F40072C3F8882F704722F40072F9E79D
:103AF000400F0228224B53F82030D3F8C82F22F071
:103B00000802C3F8C82FD3F8C82F22F02002C3F848
:103B1000C82FD3F8C82F22F48072C3F8C82FD3F867
:103B2000C82F22F40072C3F8C82FD3F8C82F22F48C
:103B30000062C3F8C82FD3F80423D2B282B1D3F8FD
:103B4000C82F22F00402C3F8C82FD3F8C82F21B120
:103B500042F00102C3F8C82F704722F00102F9E7D2
:103B6000D3F8C82F22F00102C3F8C82FD3F8C82F0A
:103B700011B142F00402EDE722F00402EAE700BFCF
:103B8000400F022800000000B0EB121F2DE9F04F9B
:103B900007461E460CBF012000200D461446AE49C4
:103BA0004FF421722DED028BA3B0FEF72FFA40F2F5
:103BB0008522B7EB161FA8490CBF01200020FEF795
:103BC00025FA3422002102A807F00DF900214C2229
:103BD0000FA807F008F9A14BE900312CB3FBF1FA6B
:103BE00001FB1A3307EE903AB8EEE76B07EE901A36
:103BF000B8EE677B86EE075B9FED957B25EE077B36
:103C0000BCEEC78B00F0A78000F29480202C00F05F
:103C1000AC8000F28380002C00F0B180102C00F00A
:103C2000B8800024DE228C4900202546A346A14608
:103C3000A046FEF7EBF9312E00F0E18000F2D180D2
:103C4000202E00F0E38000F2C280002E00F0E5801C
:103C5000102E00F0E8804FF4917200207E49FEF7AC
:103C6000D5F9002216461046082331468DF810205B
:103C700000260DEB03020393FDF712F906224946D5
:103C80004046039202AA8DF810B0FDF709F9082307
:103C9000DFF8F4811A96119358F827001C96CDE9A5
:103CA0000F630223CDE91336FDF75AFB6C4B382224
:103CB0000FA958F8270002FB0732FDF755FA58F80C
:103CC000272039462846136843F000431360FFF766
:103CD00011FE18EE103A0AF1FF32280AFFF7CCFD68
:103CE0003946280AFFF7ECFD032307226846ADF8A2
:103CF00002300123ADF800408DF80430594B53F8E1
:103D00002710FEF769FD31463846FFF7F3FEFFF74F
:103D1000B7FE23B0BDEC028BBDE8F08F302C80D114
:103D2000692440F21B154FF0110B4FF00209DFF828
:103D3000388180E7502C36D0602C3ED0402C7FF468
:103D400070AF68244FF48D754FF0130B4FF00109DD
:103D5000DFF818816FE7692440F21B154FF0110B53
:103D60004FF00109DFF8088165E76A244FF48E758A
:103D70004FF0110B4FF00109DFF8F8805BE71224D8
:103D80004FF48C754FF0110B4FF00109DFF8E8800C
:103D900051E76B2440F21D154FF0110B4FF0010954
:103DA000DFF8D88047E76D2440F21F154FF0110B64
:103DB0004FF00109DFF8C8803DE76C244FF48F75A0
:103DC0004FF0110B4FF00109DFF8B88033E7302EC8
:103DD0007FF441AF692440F21B15112201262248CD
:103DE00042E7502E26D0602E2BD0402E7FF433AFEA
:103DF00068244FF48D75132200261C4834E769248B
:103E000040F21B151122002619482DE76A244FF4B1
:103E10008E7511220026174826E712244FF48C7560
:103E20001122154820E76B2440F21D1511220026AF
:103E3000124819E76D2440F21F1511220026104880
:103E400012E76C244FF48F75112200260D480BE702
:103E50000000000000004040B6C2081000B4C404D6
:103E60002C1E02285C0F02288008314000073140D8
:103E700080063140000531400000314000023140F1
:103E80000001314080013140400F022870B50C46DE
:103E900005460A21204606F0AEFF48B1001B01305E
:103EA000C3B20022013C1046984203D100200CE02E
:103EB0000346F6E7511C14F8016F0130C9B2C0B2D5
:103EC0002C2E08BF0A46AA42EED170BD30B501467D
:103ED00085B005460120FFF7D9FF441E29466846F4
:103EE000E4B2224606F0A7FF04F1100368460DEB8A
:103EF0000304002304F8103CFEF726FB05B030BD98
:103F000030B5014685B005460120FFF7BFFF441ECE
:103F100029466846E4B2224606F08DFF04F11003FC
:103F200068460DEB0304002304F8103CFEF70CFB7D
:103F3000B7EEC00B05B030BD08B52DED108B9FED71
:103F400024EB9FED259BB0EE41DB22EE0E2B20EE05
:103F50000E0B82EE09BB80EE09ABB0EE43CBB6EEA2
:103F600000FB2DEE0EDB2CEE0ECB3AEE4B0B20EED3
:103F70000F0B05F0BDFBB0EE408BB0EE4A0B05F029
:103F800067FBB0EE40ABB0EE4B0B05F061FB8CEE87
:103F9000097BB0EE40BB8DEE090B2AEE0BAB30EE89
:103FA000470B20EE0F0B05F0A3FB20EE007B28EE65
:103FB000080B0AEE070B05F00BFA04F0ADFF30EE2C
:103FC000000B9FED077BBDEC108B20EE070B08BDAF
:103FD000282D4454FB210940000000000080664069
:103FE00000000040A654584108B52DED108B9FED00
:103FF0002A8B9FED2BDB21EE081B23EE083B22EEE4
:10400000082B20EE080B81EE0D7B83EE0DFB82EE7C
:104010000DBB80EE0D9B3FEE47FBB0EE4F0B05F066
:1040200067FBB0EE40ABB0EE4B0B05F011FBB0EE12
:1040300040EBB0EE490B05F00BFBB0EE40CBB0EE21
:104040004B0B05F055FBB0EE40BBB0EE490B05F055
:104050004FFBB0EE409BB0EE4F0B05F0F9FA2EEEA1
:10406000099B29EE001B2AEE0E0B1CEE0B1B04F025
:104070007FFF20EE0DDB8DEE080BB5EEC00BF1EEF1
:1040800010FA03DC9FED087B30EE070BBDEC108BC4
:1040900008BD00BFAFF30080282D4454FB21094028
:1040A00000000000008066400000000000807640B4
:1040B0002DE9F04147F63003174E2DED028B86B007
:1040C000019300238DF808303378012B40F01381E1
:1040D000124D02242A212846347006F08CFE224616
:1040E000411C0DF1060006F0A6FE01A8FEF710FB2C
:1040F0002B46C0B213F8012F1F4613F8011F2A29BF
:1041000007D182420CD0012006B0BDEC028BBDE885
:10411000F0814A40F1E700BF35210228342002280F
:10412000C3490220FFF7B2FE2B5CC24C412B02D0E8
:10413000442B40F071810123BD4904202372FFF715
:10414000A5FE2B5C0620BA4984F82830FFF79EFEB6
:104150002B5C0320B64984F82930FFF797FE2844EA
:10416000FFF7B4FEB0EE408BB1490520FFF78EFE9D
:104170002844FFF7ABFEFDEEC87B642017EE903AB3
:1041800093FBF0F399B2638100FB01F307EE103A61
:10419000B8EEC77B9FEDA25B38EE478BFDEEC87B88
:1041A00017EE903AA3819BB207EE103AB8EEC77BA8
:1041B00038EE477B27EE057BBDEEC77BFDEEC07B6F
:1041C00017EE103AE38117EE903A93FBF0F39AB2B0
:1041D0002382504307EE900A0720B8EEE77B30EECB
:1041E000470BFDEEC07B17EE903A63829BB207EE61
:1041F000103AB8EEC77B30EE477B27EE057B9FED8C
:104200008A5BBDEEC77B07EE901A88EE054B8849A6
:1042100017EE103A80EE056BA382B8EEE77B37EE1F
:10422000047B84ED067B07EE902AB8EEE77B37EE41
:10423000067B84ED087BFFF729FE2844FFF760FE2C
:10424000DFED7D7A7A49082020EE270A84ED0B0AFB
:10425000FFF71CFE2844FFF753FE84ED0C0AEB79B0
:10426000092095F80880303BAA7A714903EB830353
:10427000303A08EB4308A8F1300323716B7A303BE6
:1042800003EB830302EB43032A7B6371303AEB7A3F
:10429000303B03EB830302EB4303A371FFF7F6FD0F
:1042A0002B5C3A5C303B654F03EB8303791C02EBDC
:1042B0004302095CA2F13003E3703B5C303B03EB4B
:1042C000830301EB4301BB1C03371B5CA1F13005E9
:1042D000385CA8F12807303BEDB2FFB203EB830353
:1042E000A570172F00EB430000F5F4639BB2238009
:1042F00000F2AE8027710023514F33703B78012BC1
:1043000053D1504D02242A2128463C7006F073FDFB
:104310002246411C0DF1060006F08DFD01A8FEF7B6
:10432000F7F92B46C0B213F8012F13F8011F2A2901
:1043300040F0CA8082427FF4E6AE42490220FFF795
:10434000A5FD2B5C2C2B30D03E490720FFF79EFDAE
:104350002E1801203146FFF799FD441E314603A86F
:10436000E4B2224606F067FD04F1180303A80DEB42
:104370000304002304F80C3CFEF784F82D4C31496B
:1043800084F83C000920FFF781FD2844FFF7B8FDC1
:10439000B0EE408A2B490B20FFF778FD2844FFF749
:1043A000AFFD38EE008A84ED108A0023264D3B7065
:1043B0002B78012B2DD1254C02262A2120462E7048
:1043C00006F019FD3246411C0DF1060006F033FDE2
:1043D00001A8FEF79DF92346C0B213F8012F13F888
:1043E000011F2A2972D182427FF48DAE1749022023
:1043F000FFF74CFD235C0F4E412B69D1012013497F
:1044000086F83400FFF742FD2044FFF779FD86ED82
:104410000E0A0020287077E6002323721FE700BFF2
:10442000000000000070B7400000000000004E4097
:1044300034200228D8210228CDCCEC3F3620022897
:1044400036210228B420022834210228B41F022871
:10445000A8F140082F3A0B2DD2B284F8048020D85E
:104460000127AF4017F4256F19D1022D19D19D07EF
:1044700006D16427B3FBF7F507FB1535ADB295B947
:104480004FF4C875B3FBF5F705FB17339BB2002B50
:104490000CBF1D231C239A4207D8E2702BE71E2372
:1044A000F9E71F23F7E71D23F5E70123E370A1F1E7
:1044B0002F03DBB20C2B85BF3B3900F2A170A37038
:1044C000A17088BF208016E74A402EE74A4086E761
:1044D000002386F834309CE71FB500230193344B4A
:1044E0001B787BB30DF103010320FFF7A9FA58BB3A
:1044F0009DF803300A2B25D1062301AA02A92D48D5
:1045000001930123FDF7F2FE03222B490DF10B006D
:1045100006F07FFC0446F0B9284B1A78022A0BD02B
:10452000012224481A70FDF731FE234601AA2449CE
:1045300001902048FDF7DAFE1E48FDF705FE214BED
:1045400001221A7004B010BD01220DF103011948B7
:10455000FDF72CFEC6E703221B490DF10B0006F008
:1045600058FC044668B9194B1A78022AE4D0012293
:1045700010481A70FDF70AFE234601AA144901905B
:10458000D7E7032213490DF10B0006F042FC044665
:104590000028D1D1104B1A78022ACDD0012205482B
:1045A0001A70FDF7F3FD234601AA0C490190C0E7FC
:1045B000D0210228B8210228DBC2081035210228A8
:1045C0003420022820220228DFC2081036210228C7
:1045D000B4200228E3C2081034210228B41F0228A4
:1045E000F0B58D4BA9B0054621AC03F118071A466A
:1045F0001868083353F8041C2646BB4203C63446E9
:10460000F6D118686C46854B012D30605968D06929
:1046100003C41889997A2080A17003ACD2F82700CE
:10462000D3F80F1003C4B3F81300597D2080A17094
:1046300006ACD2F83200D3F81A1003C4D88B93F822
:1046400020102080A17009ACD2F83D00D3F82510CD
:1046500003C493F82B10B3F829002080A1700CAC90
:10466000906C196B03C4988E93F836102080A1705B
:104670000FACD2F85300D3F83B1003C4B3F83F009B
:1046800093F841102080A17012ACD2F85E00D3F8EC
:10469000461003C4B3F84A0093F84C102080A17070
:1046A00015ACD2F86900D3F8511003C4B3F8550023
:1046B00093F857102080A17018AC506FD96D03C4C7
:1046C000B3F8600093F862102080A1701BACD2F8A0
:1046D0007F00D3F8671003C4B3F86B0093F86D1034
:1046E0002080A1701EACD2F88A00D3F87210B3F803
:1046F000762093F8783003C42280A37078D1802389
:10470000474A00214748FDF7A5FE4FF4FA70FEF72F
:10471000B7F831234FF4E13103201A46FFF734FA9A
:104720001C2221A90320FFF773F9C820FEF7A8F87F
:104730000B2203A90320FFF76BF93220FEF7A0F844
:104740000B2269460320FFF763F93220FEF798F841
:104750000B2206A90320FFF75BF93220FEF790F841
:104760000B2209A90320FFF753F93220FEF788F83E
:104770000B220CA90320FFF74BF93220FEF780F83B
:104780000B220FA90320FFF743F93220FEF778F838
:104790000B2212A90320FFF73BF93220FEF770F835
:1047A0000B2215A90320FFF733F93220FEF768F832
:1047B0000B2218A90320FFF72BF93220FEF760F82F
:1047C0000B221BA90320FFF723F93220FEF758F82C
:1047D0001EA90B220320FFF71BF93220FEF750F829
:1047E000114B29461D700320FFF784F929B0F0BD55
:1047F000022DFBD180230A4A00210A48FDF72AFE38
:1048000031234FF4E13103201A46FFF7BDF90121AE
:10481000054B1970E7E700BF66D0081082D008107A
:1048200037210228B8210228D021022838B5064CA9
:1048300008250A460146C4F884570220FEF7A8FD61
:10484000C4F8885738BD00BF0000314037B50D4C63
:1048500008256A460623A8210220C4F88457FEF7DB
:1048600057FEC4F88857084BBDF800201A80BDF8E1
:104870000220064B1A80064BBDF804201A8003B0B4
:1048800030BD00BF00003140262202282422022829
:104890002222022837B50E4C08256A460623A2219B
:1048A0000220C4F88457FEF733FEC4F88857BDF8D9
:1048B0000030084A073B1380BDF80230064A063331
:1048C0001380BDF80430054A0233138003B030BDB5
:1048D000000031402C2202282A2202282822022805
:1048E000F0B5142085B0FDF7CBFF08250223294A37
:1048F00000214FF4807418460093274ECDE901350E
:10490000FEF77EFE012203237B201146FEF73DF9D0
:104910008F210220C6F88457FEF78EFD0746C6F8A1
:1049200088570120FDF7ACFF6B2F26D103210D2006
:10493000FFF77CFF3C211020FFF778FF5C2111205E
:10494000FFF774FF44211220FFF770FF02211320AC
:10495000FFF76CFF00211420FFF768FF00211520EE
:10496000FFF764FF00211620FFF760FF18200121E8
:10497000FFF75CFF002005B0F0BD013CA4B2002CA5
:10498000C6D1204640F20D13044A0549FDF770FBDD
:104990000120F0E78096980000003140E7C208103F
:1049A00010C3081038B5114B0146114C08251B786F
:1049B0003BB90120C4F8045BFEF718FCC4F8085B9F
:1049C00038BD10230422C4F80456C4F8043BC4F8CC
:1049D00008260222C4F88006C4F80426C4F8082673
:1049E000C4F80856C4F8083BEAE700BF2F220228A3
:1049F000000031400D4B014610B41B781BB901205B
:104A000010BCFEF7F3BB0A4B022408220420C3F8B3
:104A10008016C3F80426C3F80806C3F80446C3F892
:104A20000846C3F8082610BC704700BF2F22022892
:104A300000003140144B0A4610B41B7823B90146DC
:104A4000012010BCFEF75ABC104B0821C3F8041615
:104A50000421C3F80816022122B90822C3F8082647
:104A600010BC7047C3F80416013A0488C3F808164E
:104A7000240AC3F80416C3F8804610F8024BC3F8A2
:104A80000816C3F88046E7E72F22022800003140CD
:104A90000E4B01461B7813B90120FEF7EBBB0C4B04
:104AA00008200422C9B2C3F80406C3F8082602226B
:104AB000C3F88016C3F80426C3F80826C3F80426F2
:104AC000C3F80826C3F80806704700BF2F22022843
:104AD000000031402DE9F843DFF898900746DFF8F1
:104AE00098800D46B9F800001646214940F2491257
:104AF000B8421C4694BF00200120FDF787FAB8F8A1
:104B000000004FF4A5721A49A84294BF002001206A
:104B1000FDF77CFAB9F8000040F24B121449B0429C
:104B200094BF00200120FDF771FAB8F800004FF49F
:104B3000A6720F49A04294BF00200120FDF766FA3B
:104B40002A20FFF72FFF3846FFF7A2FF3046FFF776
:104B50009FFF2B20FFF726FF2846FFF799FF2046EF
:104B6000FFF796FF2C20BDE8F843FFF71BBF00BFFF
:104B70002BC30810800F02287E0F02282DE9F8436E
:104B8000204D6946DFF8888000AF2A88530007333C
:104B9000DB08A1EBC3039D4698F800306E461BB9B5
:104BA000194B0821C3F80416DFF868900021013A78
:104BB000B9F80030084692B2013B9BB2FFF78AFF7A
:104BC000124B324619882B8806EB43039A420FD1C9
:104BD0000024B9F80020A3B29A420CD898F800300B
:104BE0001BB9094B0822C3F80826BD46BDE8F88367
:104BF00022F8021BEAE7298830460134FFF71AFF42
:104C0000E7E700BF800F0228000031403022022871
:104C10002F2202287E0F02280B4B0128187003D97F
:104C20000238012808D97047084BF0221A804FF447
:104C3000A072074B1A807047044B4FF4A0721A8081
:104C4000F022034BF6E700BF2E220228800F022835
:104C50007E0F0228484B2DE9F04105461888C0B068
:104C60000E46A8424549904640F25D2294BF00207E
:104C70000120FDF7CBF9424B424F40F25E221888EB
:104C80003E49B04294BF00200120FDF7BFF93B78B8
:104C90001BB93D4B0822C3F804263C4B1C7854B189
:104CA000012C30D03B781BB9374B0822C3F80826BB
:104CB00040B0BDE8F081F31D6A1D314628469BB225
:104CC00092B2FFF707FF324B324A1E88324B1D88E3
:104CD000062303FB08226B4612F8010F002110F097
:104CE000010F4FEA500014BFAC46B44623F811C080
:104CF00006313029F3D101340233062CECD1684659
:104D0000FFF798FECEE706F10F03EA1D314628466D
:104D10009BB292B2FFF7DEFE1D4B204A0020B3F893
:104D200000C01D4B02EB08121E886B4612F8015F93
:104D30000021147A15F0010F4FEA550514BFB6464D
:104D4000E64623F811E008314029F3D1002103F1B0
:104D5000800514F0010F4FEA540414BFB646E6462E
:104D600025F811E008314029F3D101300233082839
:104D7000DCD18021C3E700BF800F02282BC30810BD
:104D80007E0F02282F220228000031407B0F0228CC
:104D9000302202280FC708107C0F0228F7C708101E
:104DA0001B4B2DE9F041054618880E461746A842D0
:104DB00040F2BA2217494FF0000494BF00200120AE
:104DC000FDF724F9144BDFF8548040F2BB22188819
:104DD0001049B04294BF00200120FDF717F9A3B29B
:104DE000FA5C0AB9BDE8F08198F800301BB1012BDC
:104DF0000AD00134F3E704EB440005EB40003146F0
:104E000080B2FFF727FFF4E705EBC400F7E700BF28
:104E1000800F02282BC308107E0F02287B0F022868
:104E2000F0B51C46264B064685B018880F46154639
:104E30002449B0424FF4367294BF00200120FDF7A0
:104E4000E5F8214B40F2D9221E491888B84294BF98
:104E500000200120FDF7DAF8201E40F2DA2219497D
:104E600018BF0120FDF7D2F80A2C40F2DB221549C9
:104E70008CBF00200120FDF7C9F80023621C20210F
:104E800001A80393CDE9013305F0ADFF092C14D936
:104E9000294601A8FDF71EFB01AA39463046FFF757
:104EA0007FFF05B0F0BD013C5343E4B2002CFAD1C2
:104EB00095FBF3F203FB1255EAE701230A22F5E71B
:104EC000800F02282BC308107E0F0228F0B51D4664
:104ED000394B064614460F4640F2293237492DED2C
:104EE000028B188887B0B0EE408BB04294BF002090
:104EF0000120FDF78BF8324B40F22A322F491888F7
:104F0000B84294BF00200120FDF780F8201E40F237
:104F10002B322A4918BF0120FDF778F8082C4FF4EE
:104F20004B7226498CBF00200120FDF76FF8281E28
:104F300040F22D32214918BF0120FDF767F8062DF8
:104F400040F22E321D498CBF00200120FDF75EF893
:104F50001122002101A805F046FF6219202101A8B5
:104F6000023205F040FFB7EE006BB2EE047BF4B9FD
:104F7000FDEEC67B2946BDEEC87B01A8B0EE480B0E
:104F800017EE903A17EE102A92FBF3F307EE103A61
:104F9000B8EEC77B07EE460BFDF734FB01AA394696
:104FA0003046FFF7FDFE07B0BDEC028BF0BD013CC3
:104FB00026EE076BE4B2DAE7800F02282BC3081055
:104FC0007E0F02282DE9F04380468BB0DA4EDB4D90
:104FD000DB4FDFF89493002870D1B423012408221A
:104FE00030702B705823014620463B70632389F8AC
:104FF000003004230094CDE901322346D14AFEF764
:10500000FFFA032342462146B320FDF7BEFD0323EA
:10501000424621462878FDF7B8FD03232246214663
:1050200099F80000FDF7B1FD0323224621463878A8
:10503000C54CFDF7AAFD4FF00109DFF83083207859
:10504000FFF7EAFD3B784FF08007C049DA0803F02C
:105050000703052012FB078209FA03F313602B787C
:10506000DA0803F0070312FB071209FA03F31360CF
:10507000FDF706FC2B787820DA0803F0070312FB13
:10508000078209FA03F31360FDF7FAFB33781BB9C3
:10509000AF4B0822C3F804261120FFF783FC7820C9
:1050A000FDF7EEFB3620FFF77DFC2378032B64D859
:1050B000DFE813F060003301350137015823012484
:1050C000B32000223B7063232146287089F800300A
:1050D00003233470FDF759FD03230022214638785D
:1050E000FDF753FD03232246214699F80000FDF702
:1050F0004CFD0323002221466220FDF746FD0323D9
:10510000002221466120FDF740FD0323224621466F
:10511000B420FDF73AFD0323224621466820FDF71F
:1051200034FD0323224621466920FDF72EFD03238B
:10513000224621466A20FDF728FD03232246214608
:105140006B20FDF722FD0323224621466C20FDF74C
:105150001CFD0323224621466D20FDF716FD032387
:10516000224621466E20FDF710FD032322462146EC
:105170006F205DE70020FFF73DFC3A20FFF712FCAF
:105180000520FFF737FCB220FFF70CFC0C20FFF7DF
:1051900031FC0C20FFF72EFC0020FFF72BFC332006
:1051A000FFF728FC3320FFF725FCB720FFF7FAFBB9
:1051B0003520FFF71FFCBB20FFF7F4FB2920FFF78A
:1051C00019FCC220FFF7EEFB0120FFF713FCC32000
:1051D000FFF7E8FB1920FFF70DFCC420FFF7E2FB07
:1051E0002020FFF707FCC520FFF7DCFB1A20FFF7A4
:1051F00001FCC620FFF7D6FB1F20FFF7FBFBD020EA
:10520000FFF7D0FBA420FFF7F5FBA120FFF7F2FB8F
:10521000E020FFF7C7FBD020FFF7ECFB0820FFF7EB
:10522000E9FB0E20FFF7E6FB0920FFF7E3FB09206F
:10523000FFF7E0FB0520FFF7DDFB3120FFF7DAFB8E
:105240003320FFF7D7FB4820FFF7D4FB1720FFF7E9
:10525000D1FB1420FFF7CEFB1520FFF7CBFB31204D
:10526000FFF7C8FB3420FFF7C5FBE120FFF79AFBEF
:10527000D020FFF7BFFB0820FFF7BCFB0E20FFF795
:10528000B9FB0920FFF7B6FB0920FFF7B3FB152098
:10529000FFF7B0FB3120FFF7ADFB3320FFF7AAFB90
:1052A0004820FFF7A7FB1720FFF7A4FB1420FFF708
:1052B000A1FB1520FFF79EFB3120FFF79BFB34205D
:1052C000FFF798FB2120FFF76DFB2920FFF76AFB12
:1052D00033781BB91E4B0822C3F80826FFF74EFC93
:1052E00005A8FCF7D9FE0123ADF81430194B1B8833
:1052F000ADF81630184B1B88ADF81830174B1B78DB
:105300008BB1012B14D0164B05A80893154B0993AC
:10531000FCF7CEFE0BB0BDE8F083C0202BE7702079
:1053200029E7A02027E740F60603ADF81A30EAE7A0
:1053300041F20803F9E700BF2F2202287A0F022862
:10534000790F022880C3C9012E22022804003140AF
:1053500000003140800F02287E0F02287B0F0228B8
:10536000A14D08107D4B0810780F0228080031402D
:10537000F8B5154B1B782BB3144C08260423144F97
:105380008025C4F80863C4F80433C4F80463C4F87F
:105390000833C4F80863C4F804330720013DC4F897
:1053A0000463FDF747FA27F8020B0420FDF742FAE1
:1053B00015F0FF05A7F8FE00C4F80863EDD1054B12
:1053C00001221A70F8BD00BF3322022800003140CC
:1053D00034220228322202287047000008B5084B08
:1053E00093ED190AD3ED187A20EE000A07EEA70A0A
:1053F000B7EEC00A03F0ECFFB7EEC00B08BD00BF6C
:10540000A4C8022838B5114C94F84C50E5B9104B9B
:105410001B68CBB1FFF7E2FFD4ED0D7AB4EEE70ADB
:10542000F1EE10FA10DC0123A4F84E5084F84C3051
:1054300000236365074BD3F89420D3F8C030A265EE
:10544000E365054B1B68236638BD00BF8C0F02283F
:10545000F40F02288CC7022868240228094B002276
:10546000996D83F84C20A3F84E20074ADB6DC2F8F3
:105470009410C2F8C0300023C2F8A430034AC2F826
:10548000A43070478C0F0228A4C8022874C60228D2
:10549000134B1449144A1548C3E90012144A15491C
:1054A000C3E902020E22196213491A82134A996251
:1054B0005A61134A13499A61134A5964DA615A626C
:1054C000DA62124A12491A63124A99645A63002234
:1054D00083F83C2083F84C20A3F84E20704700BF8F
:1054E0008C0F0228320078001E002C015000C800EA
:1054F000C40978059A99193E0AD7233C0000A040B8
:105500000000FA430000C8429A99993E00002040EA
:10551000000048440000344210B50B4C94F84C0095
:1055200080B90A4B1B6863B1FFF758FFD4ED0D7AC1
:10553000B4EEE70AF1EE10FACCBF0120002080F0B3
:10554000010010BD0020FCE78C0F0228F40F022898
:1055500038B5FFF743FF5148514DD0ED0D7A514C0E
:10556000B4EEE70AF1EE10FA32DD90F84C300BB1F0
:10557000FFF774FF00234C4A2B600023A367C2F897
:10558000A43090F84C307BBB484B494A196892EDE7
:10559000257AB1F5FA7FD2ED306A20D2D3ED007AC8
:1055A00000239FED446AF8EE677AC4F8A430C7EE92
:1055B000865A9FED416ADFED417A45EE867A27EE05
:1055C000877A67EEA67A84ED257AC4ED307A38BD05
:1055D0002B680BB9354A136001232B60D1E784EDAA
:1055E000257AC4ED306AF2E7013B052B4FD8DFE89E
:1055F00003F00351181B1E21DFED317A90ED167A6E
:105600000023294A27EE277AC4F8A430C2F8A43030
:1056100084ED257A90ED177A67EE277AC4ED307A1B
:10562000D5E7DFED267AE9E7D0ED087AE6E7D0EDB9
:10563000097AE3E7B0F84E30D0ED0A5A06EE903A18
:10564000438907EE903AF8EE666A1E4BF8EE677AE9
:1056500086EEA77AD0ED096AF7EE007A37EEE66AB1
:10566000B4EEE77AF1EE10FA37FE877A26EE076A93
:1056700046EE256AF4EEE76AF1EE10FA77FEA67AB6
:10568000D0ED186A26EE877A83ED007AB6E7F6EE5B
:10569000007AB3E7DFED0C7AB0E700BF8C0F022889
:1056A000F40F0228A4C8022874C602286424022821
:1056B0008CC702280000FA43CDCC4C3FCDCC4C3EE9
:1056C0009A99193F68240228CDCCCC3E2DE9F04FA1
:1056D000DFF8C4B32DED028B9BED167A89B0DBEDBC
:1056E000187A77EE877AB3EE0E7AF5EEC07AF1EE9D
:1056F00010FAC0F2B780F4EEC77AF1EE10FA77FE36
:10570000277A77EE677A9BED376AC7EE876AB1EE44
:105710000C7AC6EE077AFDEEE77A17EE903A1BB2E6
:1057200013F1FA0FC0F2AB80FA2BA8BFFA2303EBF8
:1057300043035B001BB2B2EE007AC64C07EE903A10
:10574000C54B94F84C10F8EEE77A67EEA67AD3EDE5
:10575000006AFDEEE77A17EE902A12B207EE902A61
:10576000F8EEE77A46EE877AF2EE046A87EEA67ADA
:1057700083ED007AB94B59B9B94A1268B2F5FA6F9C
:10578000B84A7FD2DFEDB87AC2ED297AC3ED007A4C
:10579000D3ED006AB1EE475AB44BB3F90A60B3F9DE
:1057A00006A09888B24B1B78012B40F0818077EEE1
:1057B000267A77EE665A36EEC76AFDEEE77A17EE7E
:1057C000903A75EE667A0FFA83F8AA4BDFF8CC921E
:1057D0001B68002B40F08980AAEB06010129A8BFB5
:1057E000012141EAE17111FB00F1A04809B200F08A
:1057F0009BFEB9F90A20B9F906304846B9F80410F9
:105800009B1A012BA8BF012343EAE37311FB03F1A9
:1058100009B200F089FE9848B0F90A20B0F90630C4
:1058200081889B1A012BA8BF012343EAE37311FB74
:1058300003F109B200F078FE9048B0F90630B0F9F3
:105840000A2081889B1A012BA8BF012343EAE37336
:1058500011FB03F109B209B0BDEC028BBDE8F04FBA
:1058600000F062BEFBEE0E6AF4EEE67AF1EE10FA9C
:1058700002D4F1EE677A44E7F0EE477A41E74FF65B
:10588000242357E7D2ED2C6ADFED7D7AF4EEE76A48
:10589000F1EE10FA07D4DFED7B7AF4EEE76AF1EE71
:1058A00010FA77FEA67AF1EE086A67EEA67A6DE73F
:1058B000DFED6D7AF4EEE76AF1EE10FAF4EEE67AD7
:1058C00037FEA66A77EE465AF1EE10FA35EE466AD2
:1058D000FDEEE55A77FEA67A15EE903A77EE275A56
:1058E00077EEC77A0FFA83F86FE7A6EB0A06B9F9E5
:1058F0000A20FDEEE77A16FB00F6FDEEE55ABDEE56
:10590000C66A33B25C4E0193B9F90630B6F90A5053
:10591000D21AB9F8043013FB02F3B6F90620AD1A17
:10592000B2881BB212FB05F2029313B2534A0393DF
:1059300017EE903AB2F906501BB2B2F90A7004930E
:105940007F1B15EE903A958815FB07F51FB216EEF2
:10595000103A2DB21BB20593002932D1019B6FF092
:1059600009044248A8EB03010A29A8BF0A21A14261
:10597000B8BF214609B200F0D7FD029B4846F91A8C
:105980000A29A8BF0A21A142B8BF214609B200F0E6
:10599000CBFD059B039A3046991A0A29A8BF0A2114
:1059A000A142B8BF214609B200F0BEFD049B3348B6
:1059B000591B0A29A8BF0A21A142B8BF214609B232
:1059C00049E7B4F84E209FED307A0132A4F84E201A
:1059D0002E4AB2F900302E4A07EE903AB2F9002072
:1059E000F8EEE77A524287EE876A07EE902A294A54
:1059F000B2F90020F8EEE77A5242CDE9061087EEC0
:105A0000870A07EE902AF8EEE77AC7EE876A20EE5B
:105A1000000A06EE060A06EEA60AB7EEC00A03F072
:105A2000D7FCB7EEC08BD4ED157AF4EEC87ADDE979
:105A30000610F1EE10FA01D584ED158A0139052919
:105A40006ED8DFE811F02D007200A500CB00030135
:105A5000330100BF8C0F0228382402283424022886
:105A60006424022874C60228000000009024022842
:105A700078130228F40F0228782402286C240228C4
:105A8000000096C30000964300108045262202289D
:105A90002422022822220228A4C8022884240228C0
:105AA000C0EB401100EB8101BA480AEB810109B259
:105AB00000F026FDB9F80420B748C2EBC21102EB92
:105AC000811102EB4102B9F8061001EB820109B223
:105AD00000F016FDB288B148C2EBC21102EB811191
